:0200000280007C
:10000000582B0720854808007D4808007D480800D7
:100010007D4808007D4808007D4808000000000079
:100020000000000000000000000000007D48080003
:100030007D480800000000007D4808007D48080059
:100040007D4808007D4808007D4808007D4808007C
:100050007D4808007D4808007D4808007D4808006C
:100060007D4808007D480800000000006945080040
:100070008145080099450800B145080000000000CE
:10008000000000007D4808007D4808007D48080009
:100090007D4808007D4808007D4808007D4808002C
:1000A0007D480800000000007D4808007D480800E9
:1000B0007D4808007D4808007D4808007D4808000C
:1000C0007D4808007D4808007D4808007D480800FC
:1000D0007D4808007D4808007D4808007D480800EC
:1000E0007D4808007D4808007D480800D5010800CB
:1000F0007D48080010B5054C237833B9044B13B183
:100100000448AFF300800123237010BDDC090720F1
:1001100000000000FC690800084B10B51BB108493D
:100120000848AFF300800848036803B910BD074BC7
:10013000002BFBD0BDE81040184700BF00000000B6
:10014000E0090720FC690800FC69080000000000C5
:1001500080B586B000AFF860B9607A6000237B613B
:10016000FB68002B12D04FF0FF3313E00B4B1B68E2
:100170000B4A1268B96810469847BB680133BB60E8
:100180007B6901337B617B68013B7B607B68002B73
:10019000ECDC7B6918461837BD4680BDB00A0720E5
:1001A000040B072080B483B000AF0346FB710849FD
:1001B00097F907305B09FA7902F01F02012000FA73
:1001C00002F241F8232000BF0C37BD4680BC7047C7
:1001D00000E100E080B582B000AF114B1B697B608D
:1001E0007B68DBB2002B17D00D4BD3F830327B602D
:1001F0007B6803F40003002B0ED00A4B01221A6027
:10020000084A7B6893600748074B98470548074BA7
:100210009847074B01221A6000BF0837BD4680BDD2
:1002200000400B40B80A07204903080035020800C7
:10023000F809072080B485B000AF78607B689B69BF
:10024000FB603A7B364B1A707A7B354B5A70344BD5
:100250001B780A2B00D05CE0314B5B78403B062BCF
:1002600056D801A252F823F085020800990208002E
:10027000AD020800C1020800D5020800E90208002A
:10028000FD020800274B01221A70274B00221A702A
:10029000264B01221A703CE0234B01221A70214B9D
:1002A00001221A70224B01221A7032E01E4B0222E8
:1002B0001A701C4B01221A701E4B01221A7028E082
:1002C000194B03221A70174B01221A701A4B012284
:1002D0001A701EE0144B04221A70124B01221A707D
:1002E000164B01221A7014E00F4B05221A700D4BA9
:1002F00001221A70124B01221A700AE00A4B0622E0
:100300001A70084B01221A700E4B01221A7000E07D
:1003100000BF00BF00BF1437BD4680BC704700BFA0
:10032000B40A0720FC090720D80A07208C010720FF
:100330008D0107208E0107208F01072090010720E3
:10034000910107209201072080B487B000AF786048
:1003500000237B617B681B68FB747B689B68FB6088
:10036000FB6803F40003002B06D0FB6803F08073E6
:10037000002B01D002237B61264AFB7C5B011344E6
:1003800003F503731B6823F060427B685A61FB68C6
:100390001B0CDBB203F00F03DAB27B689A711D4AC3
:1003A000FB7C5B01134403F505731A687B689A6153
:1003B000184AFB7C5B01134403F506731A687B68DB
:1003C000DA61144AFB7C5B01134403F504731A6879
:1003D0007B689A607B689B68FB60FB6803F08073B6
:1003E000002B03D07B6943F004037B610949FB7C4C
:1003F0007A689279120402F4702242F400025B01DE
:100400000B4403F507731A607B6918461C37BD4619
:1004100080BC704700400B4080B485B000AF78606E
:100420007B681B68FB732A4AFB7B5B01134403F563
:1004300004731A687B689A607B689B68BB60BB68C2
:1004400003F40003002B01D101233BE07B685B79BF
:10045000002B0BD01E49FB7B7A68126942F00052D8
:100460005B010B4403F502731A6008E01849FB7B3B
:100470007A6812695B010B4403F502731A60144930
:10048000FB7B7A6892695B010B4403F505731A6084
:100490007B689B79042B08D90D49FB7B7A68D2696C
:1004A0005B010B4403F506731A600949FB7B7A680C
:1004B0009279120402F470225B010B4403F5077376
:1004C0001A60002318461437BD4680BC704700BF31
:1004D00000400B4080B485B000AF0346FB71074B72
:1004E0005B6A23F0FF03FB600449FA79FB6813435E
:1004F0004B6200BF1437BD4680BC704700400B40C4
:1005000080B485B000AF78607B681B68FB737B6844
:100510001B79002B2FD1354AFB7B10335B01134431
:1005200000221A60314AFB7B10335B011344043311
:1005300000221A602D4AFB7B5B01134403F5027312
:1005400000221A60294AFB7B5B01134403F5057303
:1005500000221A60254AFB7B5B01134403F50673F6
:1005600000221A60214AFB7B5B01134403F50773E9
:1005700000221A6035E01D48FB7B1C49FA7B1032D3
:1005800052010A44126822F470227968C979090478
:100590000A4310335B0103441A601449FB7B7A68F9
:1005A000D26810335B010B4404331A600F49FB7BA4
:1005B0007A6812695B010B4403F502731A600B48F9
:1005C000FB7B0A49FA7B103252010A44126822F07E
:1005D000E0627968097909060A4310335B01034434
:1005E0001A601437BD4680BC704700BF00400B4006
:1005F00080B58EB000AF534BBB62782387F82730AD
:10060000514B524AC3F8E4204F4A4F4B1B6823F02A
:10061000010313604C49BB6ADB78013B03F007021E
:10062000BB6A9B78013B1B0103F070031A43BB6A52
:100630005B78013B1B0203F4E0631A43BB6A1B793E
:10064000013B1B0303F440531A4397F82730013B47
:100650001B0403F4FE0313434B6100233B7200238E
:1006600087F82F300BE097F82F307B603B1D184642
:10067000374B984797F82F30013387F82F3097F88A
:100680002F30072BEFD9304A2F4B1B6843F0010363
:10069000136000237B6300233B6305E02A4B1B6947
:1006A0007B633B6B01333B637B6B03F40013002BD9
:1006B00003D13B6B274A9342F0D93B6B264A9342C6
:1006C00003D12648264B984702E02648244B9847FA
:1006D000254B01221A60244B01221A71224B002261
:1006E000DA71214B00225A711F4B204ADA601E4BEF
:1006F0004FF440221A611C48154B98472B201C4B85
:100700009847114B02225A60174B00221A60164B71
:1007100003221A71144B0122DA71134B00225A7111
:10072000114B124ADA60104B4FF420121A610E4836
:10073000074B984702210F480F4B984700BF3837A7
:10074000BD4680BD9C68080000400B40004E414300
:10075000010508009F860100A0860100E4680800EA
:10076000214E080008690800B80A07200000FC1F95
:10077000A5010800000E0E407911080080B500AFF9
:10078000144B9847144B154AC3F8E4200B20144B24
:1007900098470C20124B98470D20114B98470E207C
:1007A0000F4B984718200E4B98472B200C4B98471F
:1007B00005200B4B98470820094B98471B20084BF6
:1007C00098472120064B9847034B064AC3F8E4207C
:1007D00000BF80BD7940080000060E4000434D5028
:1007E000E907080001434D5080B483B000AF786042
:1007F0007B682C2B01D901232FE07B681F2B13D89A
:10080000184B9A6901217B6801FA03F31A40012110
:100810007B6801FA03F39A421ED0124A01217B68D9
:1008200001FA03F3136117E07B68203B7B600D4BFB
:10083000D3F8082101217B6801FA03F31A40012152
:100840007B6801FA03F39A4206D0064A01217B68CD
:1008500001FA03F3C2F80031002318460C37BD46F5
:1008600080BC704700060E4080B582B000AF012109
:100870000020134B984700210020124B9847124B41
:1008800080221A70104BC3225A70104B9847104B9D
:10089000984701200F4B9847002202210A480E4B2F
:1008A000984700237B6002E07B6801337B607B68B4
:1008B000B3F57A7FF8D300BF0837BD4680BD00BFCF
:1008C0000516080059160800E80A0720A91B0800A9
:1008D000B51A08000D1708004517080080B582B04A
:1008E00000AF01210020134B984700210020124B3C
:1008F0009847124B80221A70104BC3225A70104B2B
:100900009847104B984701200F4B9847002202212F
:100910000A480E4B984700237B6002E07B68013356
:100920007B607B68B3F57A7FF8D300BF0837BD469C
:1009300080BD00BF0516080059160800E80A072008
:10094000A91B0800D11A08000D1708004517080058
:1009500080B582B000AF01210120134B98470021E0
:100960000120124B9847124B80221A70104BC32261
:100970005A70104B9847104B984702200F4B9847DE
:10098000002202210A480E4B984700237B6002E0B8
:100990007B6801337B607B68B3F57A7FF8D300BF57
:1009A0000837BD4680BD00BF05160800591608006F
:1009B000E80A0720A91B0800E91A08000D1708001B
:1009C0004517080080B500AF114B124AC3F8E42068
:1009D000114B104AC3F8E420104B0E4AC3F8E42030
:1009E0000F4B0C4AC3F8E4200E4B98470E4B984728
:1009F0000E4B98470E4B98470E4B9847044B0022DE
:100A00001A67054B4FF400121A6700BF80BD00BF84
:100A1000000E0E40004F495000100E4000120E40D4
:100A200000140E40950C08006D0F0800151008000A
:100A30005D0B0800390A080080B500AF08213C486A
:100A40003C4B984708213A483B4B98470821384887
:100A50003A4B984708213648394B98470821344883
:100A6000384B984707213248324B98470721304886
:100A7000314B984707212E48304B984707212C4887
:100A80002F4B984707212A482E4B98470621284884
:100A9000284B984706212648274B9847062124488B
:100AA000264B984706212248254B98470621204887
:100AB000244B9847022124481E4B98470221224884
:100AC000224B984702212048214B984702211E487B
:100AD000204B984702211C481F4B984701211A4878
:100AE000144B984701211848184B98470121164884
:100AF000174B984701211448164B9847012112487B
:100B0000154B9847002110480A4B984700210E4882
:100B10000E4B984700210C480D4B984700210A487E
:100B20000C4B9847002108480B4B984700BF80BDED
:100B300000120E40C51008000D1108009D1108009C
:100B400055110800E511080000140E40311108008D
:100B500079110800851008000D12080080B500AF5B
:100B60000F214648464B984710214448444B98472C
:100B700014214248424B984711214048404B984726
:100B800012213E483E4B984713213C483C4B984726
:100B90000E213A483A4B98470F213848394B98472D
:100BA00010213648374B984714213448354B984725
:100BB00011213248334B984712213048314B984726
:100BC00013212E482F4B98470E212C482D4B984728
:100BD0000F212A482C4B9847102128482A4B984728
:100BE00014212648284B984711212448264B984722
:100BF00012212248244B984713212048224B984722
:100C00000E211E48204B98470F211C481F4B984728
:100C100010211A481D4B9847142118481B4B984720
:100C200011211648194B984712211448174B984721
:100C300013211248154B98470E211048134B984723
:100C40000F210E48124B984710210C48104B984723
:100C500014210A480E4B9847112108480C4B98471D
:100C6000122106480A4B984713210448084B98471D
:100C70000E210248064B984700BF80BD000E0E4073
:100C8000C51008003111080079110800851008000E
:100C90000D12080080B500AF1A219148914B98477A
:100CA00019218F488F4B98471B218D488D4B9847B2
:100CB0001C218B488B4B98471D218948894B9847AD
:100CC00015218948874B984717218748854B9847B6
:100CD00006218348854B984706218148844B9847D5
:100CE00006217F48834B984706217D48824B9847D1
:100CF00006217B48814B9847052179487B4B9847D3
:100D0000052177487A4B984705217548794B9847D4
:100D100005217348784B984705217148774B9847D0
:100D200004216F48714B984704216D48704B9847D8
:100D300004216B486F4B9847042169486E4B9847D4
:100D4000042167486D4B984703216548674B9847D6
:100D500003216348664B984703216148654B9847D8
:100D600003215F48644B984703215D48634B9847D4
:100D700000215D485D4B984700215B485C4B9847DC
:100D8000002159485B4B9847002157485C4B9847D6
:100D900000215548594B984701215348534B9847D8
:100DA00001215148524B984701214F48514B9847D8
:100DB00001214D48524B984701214B484F4B9847D2
:100DC00002214948494B984702214748484B9847D8
:100DD00002214548474B984702214348484B9847D2
:100DE00002214148454B984703213F483F4B9847D4
:100DF00003213D483E4B984703213B483D4B9847D4
:100E0000032139483D4B9847032137483C4B9847CD
:100E100004213548354B984704213348344B9847D3
:100E200004213148334B984704212F48334B9847CE
:100E300004212D48324B984705212B482B4B9847CE
:100E4000052129482A4B984705212748294B9847CF
:100E500005212548294B984705212348284B9847C9
:100E600006212148214B984706211F48204B9847CF
:100E700006211D481F4B984706211B481F4B9847CA
:100E8000062119481E4B984707211748174B9847CA
:100E900007211548164B984707211348154B9847CB
:100EA00007211148154B984707210F48144B9847C5
:100EB00008210D480D4B984708210B480C4B9847CB
:100EC000082109480B4B9847082107480B4B9847C6
:100ED000082105480A4B98470E21034812E000BF3D
:100EE000000E0E40E910080000100E40C51008006A
:100EF0000D1108009D11080055110800E5110800AA
:100F000079110800134B98470E211348134B98474B
:100F10000E211148124B98470E210F48114B98474C
:100F20000E210D48104B98470F210B48094B98474D
:100F30000F210948094B98470F210748084B98474C
:100F40000F210548074B98470F210348064B984748
:100F500000BF80BDC510080000100E400D11080034
:100F60009D110800E51108007911080080B500AF57
:100F700001211E481E4B984701211C481D4B9847D4
:100F800001211A481C4B9847012118481B4B9847D0
:100F9000012116481A4B984700211448144B9847D2
:100FA00000211248134B984700211048124B9847D4
:100FB00000210E48114B984700210C48104B9847D0
:100FC00002210A480F4B9847022108480E4B9847C8
:100FD00002210648084B9847022104480B4B9847CA
:100FE000022102480A4B984700BF80BD000E0E4008
:100FF000E910080031110800791108000D120800ED
:10100000C1110800C51008000D110800E511080005
:101010009D11080080B500AF08211448144B984773
:1010200008211248134B984708211048124B984743
:1010300008210E48114B984708210C48104B98473F
:1010400009210A480A4B984709210848094B984743
:1010500009210648084B984709210448074B98473F
:1010600009210248064B984700BF80BD000E0E4084
:10107000E910080031110800791108000D1208006C
:10108000C111080080B483B000AF786039607B681C
:10109000DA6C01213B6801FA03F31A4001213B6835
:1010A00001FA03F39A4206D101223B6802FA03F3E4
:1010B0001A467B685A64002318460C37BD4680BC2C
:1010C000704700BF80B483B000AF78603960012200
:1010D0003B6802FA03F31A467B681A60002318463D
:1010E0000C37BD4680BC704780B483B000AF7860D9
:1010F000396001223B6802FA03F31A467B685A60A2
:10110000002318460C37BD4680BC704780B483B0BE
:1011100000AF7860396001223B6802FA03F31A4697
:101120007B681A61002318460C37BD4680BC7047A7
:1011300080B483B000AF7860396001223B6802FA66
:1011400003F31A467B685A61002318460C37BD46E4
:1011500080BC704780B483B000AF786039600122F2
:101160003B6802FA03F31A467B681A6300231846A9
:101170000C37BD4680BC704780B483B000AF786048
:10118000396001223B6802FA03F31A467B685A630E
:10119000002318460C37BD4680BC704780B483B02E
:1011A00000AF7860396001223B6802FA03F31A4607
:1011B0007B685A66002318460C37BD4680BC7047D2
:1011C00080B483B000AF7860396001223B6802FAD6
:1011D00003F31A467B681A66002318460C37BD468F
:1011E00080BC704780B483B000AF78603960012262
:1011F0003B6802FA03F31A467B68C3F8A020002379
:1012000018460C37BD4680BC704700BF80B483B021
:1012100000AF7860396001223B6802FA03F31A4696
:101220007B68C3F8A420002318460C37BD4680BC59
:10123000704700BF80B584B000AF2A4B98472A4B57
:1012400098472A4B98472A4B06221A700520294BAB
:101250009847052201212648274B98470023FB6029
:1012600002E0FB680133FB60FB68244A9342F8D933
:101270001F4B43221A701E4B31225A701C4B042202
:101280009A701B4BE022DA70194B00221A7105206C
:10129000184B9847052205211548174B98470023FE
:1012A000BB6002E0BB680133BB60BB68144A934279
:1012B000F8D90F4B08221A7005200E4B98470522CB
:1012C00001210B480C4B984700237B6002E07B68B0
:1012D00001337B607B680A4A9342F8D900BF10371C
:1012E000BD4680BDC51B0800E11B0800A91B080006
:1012F000E80A07200D170800451708007F96980098
:101300009F86010080B584B000AF2A4B98472A4BD6
:1013100098472A4B98472A4B06221A700620294BD9
:101320009847062201212648274B98470023FB6057
:1013300002E0FB680133FB60FB68244A9342F8D962
:101340001F4B43221A701E4B31225A701C4B042231
:101350009A701B4BE022DA70194B00221A7106209A
:10136000184B9847062205211548174B984700232C
:10137000BB6002E0BB680133BB60BB68134A9342A9
:10138000F8D90F4B08221A7006200E4B98470622F8
:1013900001210B480C4B984700237B6002E07B68DF
:1013A00001337B607B68094A9342F8D900BF10374C
:1013B000BD4680BDC51B0800E11B0800A91B080035
:1013C000E80A07200D170800451708007F969800C7
:1013D00080B584B000AF2A4B98472A4B98472A4BD8
:1013E00098472A4B06221A700720294B9847072254
:1013F00001212648274B98470023FB6002E0FB6849
:101400000133FB60FB68244A9342F8D91F4B432207
:101410001A701E4B31225A701C4B04229A701B4BBF
:10142000E022DA70194B00221A710720184B9847F6
:10143000072205211548174B98470023BB6002E09F
:10144000BB680133BB60BB68134A9342F8D90F4BAA
:1014500008221A7007200E4B9847072201210B48DB
:101460000C4B984700237B6002E07B6801337B6074
:101470007B68094A9342F8D900BF1037BD4680BD4A
:10148000C51B0800E11B0800A91B0800E80A07208B
:101490000D170800451708007F96980080B483B0A8
:1014A00000AF78607B68072B25D801A252F823F0A3
:1014B000D1140800D7140800DD140800E314080054
:1014C000E7140800EB140800EF140800F3140800F8
:1014D0004FF4FA4310E04FF400430DE04FF40043A3
:1014E0000AE0084B08E0084B06E0084B04E0074B15
:1014F00002E0064B00E0002318460C37BD4680BCD6
:10150000704700BF00093D0000127A00001BB700C1
:1015100080B500AF0620044B984702461346DB0017
:101520009B1A5B00184680BD9D14080080B500AF73
:10153000024B984703465B08184680BD111508000A
:1015400080B582B000AF78607868034B984700BFE1
:101550000837BD4680BD00BFFD47080090B482B08B
:1015600000AF0346FB710B46BB7113467B711149FB
:10157000FB791048FA790C3250F8222092B20C33E1
:1015800041F823200B4CFB790A49FA790C3251F8C7
:101590002210BA79120402F47F027879000602431D
:1015A0000A430C3344F8232000BF0837BD4690BCE3
:1015B000704700BF0080004080B483B000AF034696
:1015C0003960FB710E49FB790D48FA790C3250F8FD
:1015D000222022F0F0020C3341F823200848FB7946
:1015E0000749FA790C3251F822103A680A430C3351
:1015F00040F8232000BF0C37BD4680BC704700BFB9
:101600000080004080B483B000AF03463960FB71B6
:101610003B68002B0CD00F49FB790E48FA790C324D
:1016200050F8222042F001020C3341F823200BE055
:101630000849FB790748FA790C3250F8222022F049
:1016400001020C3341F8232000BF0C37BD4680BC9B
:10165000704700BF0080004080B483B000AF0346F5
:101660003960FB713B68002B0CD00F49FB790E48A9
:10167000FA790C3250F8222042F002020C3341F881
:1016800023200BE00849FB790748FA790C3250F81F
:10169000222022F002020C3341F8232000BF0C3735
:1016A000BD4680BC704700BF0080004080B483B05E
:1016B00000AF03460A46FB711346BB71BB79002B92
:1016C00002D14FF0FF331AE00F49FB790E48FA7947
:1016D0000C3250F8222022F47F420C3341F82320B0
:1016E0000948FB790849FA790C3251F82210BA7985
:1016F000120292B20A430C3340F82320002318460A
:101700000C37BD4680BC70470080004080B483B079
:1017100000AF0346FB710A4A094B5B6823F4702350
:1017200053600749064B5A68FB791B0403F4702386
:1017300013434B6000BF0C37BD4680BC704700BFF1
:101740000080004080B586B000AFF860B9601346F5
:10175000FB71FB683B6100237B611BE03A697B699D
:1017600013441B78F979002218460E4B984700BFA6
:101770000D4B1B6903F00103002BF9D00B480C4BF8
:1017800098473A697B691344084A12781A707B6952
:1017900001337B617A69BB689A42DFD300BF183797
:1017A000BD4680BD2118080000800040FE090720CA
:1017B0009118080080B588B000AFF860B960134692
:1017C000FB71FB68BB610023FB611AE0BB691B78FE
:1017D000F979002218460F4B984700BF0E4B1B6942
:1017E00003F00103002BF9D007F1170318460B4B48
:1017F0009847BA69FB691344FA7D1A70FB69013393
:10180000FB61FA69BB689A42E0D300BF2037BD464E
:1018100080BD00BF2118080000800040911808001A
:1018200080B485B000AF0346FB710B46BB71134615
:101830007B7143F69823FB6006E0FB685A1EFA6052
:10184000002B01D101231BE0104B1B6903F00203A5
:10185000002BF2D07B79002B06D00C4A0B4B1B6877
:1018600043F08073136005E0084A084B1B6823F0BF
:1018700080731360FB79BB60044ABB68D3600023AC
:1018800018461437BD4680BC704700BF008000403A
:1018900080B485B000AF786043F69823FB6006E023
:1018A000FB685A1EFA60002B01D101230FE00A4B9E
:1018B0001B6903F00103002BF2D0074B9B68074A1A
:1018C0001360064B1B68DAB27B681A700023184657
:1018D0001437BD4680BC704700800040000A0720D6
:1018E00080B500AF594B5A4AC3F8E42059485A4BC7
:1018F00098471820594B9847544B02221A60534B73
:1019000080221A60514B4FF080721A604F4A4F4B41
:101910005B6843F0010353604C4A4C4B5B6843F0F7
:1019200010035360494A494B5B6843F0040353601A
:10193000464A464B5B6823F4702353604349434B4C
:101940005A68474B1B78184601238340DB431B042E
:1019500003F4702313434B6000210020414B984750
:1019600001210020404B9847002100203F4B984721
:101970003F4B984702463F4B1B68B2FBF3F3DBB289
:10198000194600203C4B98474022002100203B4B49
:10199000984700210120334B984701210120324B09
:1019A000984700210120314B9847314B9847024618
:1019B000304B1B68B2FBF3F3DBB2194601202E4B10
:1019C00098474022002101202C4B984700210220FB
:1019D000244B984701210220234B984700210220E5
:1019E000224B9847224B98470246224B1B68B2FB7A
:1019F000F3F3DBB2194602201F4B98474022002127
:101A000002201E4B984700210320164B98470121C6
:101A10000320154B984700210320144B9847144B83
:101A200098470246134B1B68B2FBF3F3DBB219462F
:101A30000320114B98474022002103200F4B984769
:101A4000024B01221A6000BF80BD00BF0080004031
:101A5000004950532C690800214E08004115080028
:101A6000FD0907200516080059160800B9150800D9
:101A70002D15080094010720AD1608005D1508001B
:101A800080B400AF034B18225A6300BFBD4680BC30
:101A9000704700BF00100E4080B400AF044B082216
:101AA0001A63034B10225A6300BFBD4680BC7047C7
:101AB00000100E4080B400AF044B08225A63034B61
:101AC00010221A6300BFBD4680BC704700100E4054
:101AD00080B400AF034B18221A6300BFBD4680BC20
:101AE000704700BF00100E4080B400AF034B60226F
:101AF0005A6300BFBD4680BC704700BF00100E4057
:101B000080B400AF044B20221A63034B40225A6377
:101B100000BFBD4680BC704700100E4080B400AFCF
:101B2000044B20225A63034B40221A6300BFBD4678
:101B300080BC704700100E4080B400AF054B80227F
:101B40001A63044B4FF480725A6300BFBD4680BCD9
:101B5000704700BF00100E4080B400AF054B8022DC
:101B60005A63044B4FF480721A6300BFBD4680BCB9
:101B7000704700BF00100E4080B400AF034B4FF41D
:101B8000C0721A6300BFBD4680BC704700100E4093
:101B900080B400AF034B4FF440425A6300BFBD46D0
:101BA00080BC704700100E4080B400AF044B03228D
:101BB0005A63034B04221A6300BFBD4680BC7047C2
:101BC00000100E4080B400AF044B03221A63034B95
:101BD00004225A6300BFBD4680BC704700100E400F
:101BE00080B500AF06210848084B984705210648F4
:101BF000064B984704210448044B984703210248A8
:101C0000024B984700BF80BD000E0E4055110800E2
:101C100080B500AF06210848084B984705210648C3
:101C2000074B984704210448054B98470321024875
:101C3000034B984700BF80BD000E0E40791108008D
:101C40005511080080B500AF06210848084B984799
:101C500005210648074B984704210448044B984740
:101C600003210248024B984700BF80BD000E0E4082
:101C7000551108007911080080B500AF0621084809
:101C8000084B984705210648064B9847042104480D
:101C9000054B984703210248024B984700BF80BD7F
:101CA000000E0E40551108007911080080B584B06F
:101CB00000AF2D4B98472D4B98470023FB6002E067
:101CC000FB680133FB60FB6842F20F729342F7DD61
:101CD000274B9847274B9847274B9847274B9847C0
:101CE000224B9847264B98470023BB6002E0BB6815
:101CF0000133BB60BB6842F20F729342F7DD214BA8
:101D00009847214B9847214B9847214B9847164BB2
:101D10009847164B9847194B9847144B98471D4BBB
:101D2000984700237B6002E07B6801337B607B681F
:101D300042F20F729342F7DD174B9847174B9847C3
:101D4000094B9847094B984700233B6002E03B68EA
:101D500001333B603B6842F20F729342F7DD002390
:101D600018461037BD4680BDC51B0800E11B0800A2
:101D70003512080005130800D1130800A91B08003C
:101D8000111C0800292E0800A12E0800690808006F
:101D9000DD080800451C080051090800192F08003B
:101DA00080B5A0B000AF03463960FB713B680022EC
:101DB0001A8043F69823FB67FB79013B112B01F254
:101DC000248001A252F823F0111E0800871E08008B
:101DD000F51E0800611F08008F1F08000920080079
:101DE000BD20080031210800A72108001D2208009D
:101DF00093220800B125080009270800532808008D
:101E0000CD290800452B08008F2C08000B2E080058
:101E100008219C489C4B98479C4B98479C4B102210
:101E20001A709B4B00225A70994B00229A7007E05F
:101E3000FB6F5A1EFA67002B02D1012300F0E6BFA8
:101E4000944BDB6B9B0803F00103002BF0D1924B0A
:101E500098470520914B9847052203218C48904BC9
:101E600098478B4B5A788F4B5A70894B9A788D4B89
:101E70001A708C4B1B889AB23B681A80834B984728
:101E8000002300F0C3BF814B9847814B10221A708A
:101E90007F4B00225A707E4B00229A7007E0FB6F46
:101EA0005A1EFA67002B02D1012300F0AFBF794B15
:101EB000DB6B5B0803F00103002BF0D1764B9847F6
:101EC0000620764B9847062203217148744B9847A9
:101ED0006F4B5A78734B5A706D4B9A78714B1A70DE
:101EE000704B1B889AB23B681A80684B9847002356
:101EF00000F08CBF654B9847654B10221A70644BFD
:101F000000225A70624B00229A7007E0FB6F5A1E43
:101F1000FA67002B02D1012300F078BF5D4BDB6B29
:101F200003F00103002BF1D15B4B984707205B4B7B
:101F30009847072203215648594B9847544B5A78E3
:101F4000584B5A70524B9A78564B1A70554B1B8807
:101F50009AB23B681A804D4B9847002300F056BF59
:101F6000514B9847494B98474B4B9847484B002259
:101F70001A70474B00225A70454B00229A70FB6F33
:101F80005A1EFA67002BFAD1012300F03FBF404BE5
:101F900001221A703E4B00225A703D4B00229A706B
:101FA00007E0FB6F5A1EFA67002B02D1012300F0F5
:101FB0002DBF3E4BDB6BDB0B03F00103002BF0D19D
:101FC000354B9847314B9847394B9847394B984791
:101FD0000120324B9847012203212D48304B98476E
:101FE0002B4B5A782F4B5A70294B9A782D4B1A70DD
:101FF0002C4B1B889AB23B681A802B4B9847234B7B
:102000009847002300F002BF214B01221A70204B99
:1020100000225A701E4B00229A7007E0FB6F5A1E76
:10202000FA67002B02D1012300F0F0BE1F4BDB6BDF
:102030001B0C03F00103002BF0D1174B9847134BF7
:1020400098471B4B98471C4B98470120134B9847C8
:10205000012203210E48124B98470D4B5A78114B21
:102060005A700B4B9A780F4B1A700E4B1B889AB212
:102070003B681A800C4B9847044B9847002300F0AC
:10208000C5BE00BF00120E4055110800E11B08003C
:10209000E80A072000140E40A91B08000D170800CD
:1020A000B5170800E40A0720C51B0800000E0E4003
:1020B000111C0800811A0800991A08009D4B012282
:1020C0001A709C4B00225A709A4B00229A7007E0BB
:1020D000FB6F5A1EFA67002B02D1012300F096BE57
:1020E000954BDB6B5B0C03F00103002BF0D1934BA2
:1020F0009847934B9847934B98470120924B9847AA
:10210000012203218B48914B98478A4B5A78904B78
:102110005A70884B9A788E4B1A708D4B1B889BB2E5
:102120003B608C4B98478C4B9847002300F06EBE69
:10213000804B01221A707F4B00225A707D4B002287
:102140009A7007E0FB6F5A1EFA67002B02D1012339
:1021500000F05CBE784BDB6B9B0C03F00103002BA3
:10216000F0D1764B9847764B98477C4B98470120A7
:10217000754B9847012203216E48744B98476D4B6D
:102180005A78734B5A706B4B9A78714B1A70704B2C
:102190001B889AB23B681A806E4B98476E4B9847E3
:1021A000002300F033BE634B01221A70614B002202
:1021B0005A70604B00229A7007E0FB6F5A1EFA6754
:1021C000002B02D1012300F021BE5B4BDB6B1B0D0A
:1021D00003F00103002BF0D1584B9847604B984710
:1021E000604B98470220584B9847022203215148E0
:1021F000564B98474F4B5A78554B5A704D4B9A78DF
:10220000534B1A70524B1B889AB23B681A80514B41
:102210009847514B9847002300F0F8BD454B0122E9
:102220001A70444B00225A70424B00229A7007E009
:10223000FB6F5A1EFA67002B02D1012300F0E6BDA6
:102240003D4BDB6BDB0C03F00103002BF0D13B4B70
:102250009847454B9847434B984702203A4B98473D
:10226000022203213348394B9847324B5A78384B76
:102270005A70304B9A78364B1A70354B1B889AB28D
:102280003B681A80334B9847334B9847002300F044
:10229000BDBD284B00221A70264B00225A70274BD6
:1022A0009847324B98472C4B9847314B984703201F
:1022B000254B9847032202211E48244B98470023B0
:1022C000BB6702E0BB6F0133BB67BB6FB3F57A7FBF
:1022D000F8D3184B00221A70164B00225A700322B2
:1022E00002211448194B9847124B1A78184B5A7010
:1022F000104B5A78164B1A70154B1B88FB837B7F4B
:1023000023F007037B777B7F43F001037B77094A48
:102310007B7F1370174B64221A8003200A4B984767
:10232000154B9847032201210248144B984700237C
:102330007B6728E0E80A0720000E0E40A91B080072
:10234000111C0800B51A08000D170800B517080081
:10235000E40A0720C51B0800E11B0800D11A080089
:10236000011B0800451C0800E91A0800391B080079
:10237000791C0800FC0A0720591B080045170800B3
:102380007B6F01337B677B6F964A9342F8D9964BFC
:1023900008221A70944B00225A70944B9847944B21
:1023A0009847944B9847944B98470320934B9847F2
:1023B000032202218C48924B984700233B6702E09E
:1023C0003B6F01333B673B6FB3F57A7FF8D3864BA6
:1023D00008221A70844B00225A700322022182487C
:1023E000874B9847804B1A78864B5A707E4B5A78A9
:1023F000844B1A70834B1B887B837B8B4FF47A72E0
:1024000002FB03F2FB8B92FBF3F39AB23B681A8058
:102410003B681B88B3F5FA7F80F0C4807B7F23F094
:1024200007037B777B7F43F002037B776E4A7B7FDA
:102430001370754B4FF47A721A8003206F4B9847D4
:10244000724B9847032201216748714B984700233C
:10245000FB6602E0FB6E0133FB66FB6E4CF24F3213
:102460009342F7D9604B08221A705F4B00225A70D2
:102470005E4B98475E4B98475E4B98475E4B98473C
:1024800003205E4B98470322022157485C4B984734
:102490000023BB6602E0BB6E0133BB66BB6EB3F5C7
:1024A0007A7FF8D3504B08221A704F4B00225A7093
:1024B000032202214C48524B98474B4B1A78514B00
:1024C0005A70494B5A784F4B1A704E4B1B887B837E
:1024D0007B8B4FF47A7202FB03F2FB8B92FBF3F3DC
:1024E0009AB23B681A803B681B88B3F57A7F59D251
:1024F0007B7F23F007037B777B7F43F004037B77AD
:10250000394A7B7F1370404B48F2A0621A80032047
:102510003A4B98473D4B98470322012132483C4BA8
:102520009847314B08221A702F4B00225A702F4BBC
:1025300098472F4B98472F4B98472F4B984703208E
:102540002E4B98470322022127482D4B9847002302
:102550007B6602E07B6E01337B667B6EB3F57A7F30
:10256000F8D3214B08221A701F4B00225A70032205
:1025700002211D48224B98471B4B1A78214B5A7059
:10258000194B5A781F4B1A701E4B1B887B837B8B11
:102590004FF47A7202FB03F2FB8B92FBF3F39AB2D5
:1025A0003B681A801B4B9847124B984700F02EBC93
:1025B0000D4B00221A700C4B00225A700B4B98479F
:1025C0000B4B98470B4B98470B4B984703200B4BF3
:1025D0009847032202210448094B984700233B6691
:1025E0001DE000BF1FA10700E80A0720A91B080083
:1025F000391B0800E11B0800791C08000D170800B2
:10260000B5170800E40A0720FC0A0720591B080038
:1026100045170800C51B08003B6E01333B663B6E47
:10262000B3F57A7FF8D3974B00221A70954B0022AE
:102630005A70032202219348934B9847914B1A7882
:10264000924B5A708F4B5A78904B1A708F4B1B8855
:10265000FB837B7F23F038037B777B7F43F0200372
:102660007B77884A7B7F13700320894B9847894B7F
:102670009847032201218348874B9847814B1022BA
:102680001A70804B00225A70844B9847844B9847AD
:10269000844B9847844B984703207D4B98470322EF
:1026A00002217848784B98470023FB6502E0FB6DD8
:1026B0000133FB65FB6DB3F57A7FF8D3714B1022C4
:1026C0001A70704B00225A70032202216D486E4B23
:1026D00098476C4B1A786D4B5A706A4B5A786B4B13
:1026E0001A706A4B1B883B833B8B4FF47A7202FB58
:1026F00003F2FB8B92FBF3F39AB23B681A806B4BAD
:102700009847684B984781E35E4B00221A705D4BF7
:1027100000225A70614B9847614B9847614B98472C
:10272000614B984703205A4B984703220221554892
:10273000554B98470023BB6502E0BB6D0133BB6579
:10274000BB6DB3F57A7FF8D34E4B00221A704D4B18
:1027500000225A70032202214A484B4B9847494BAA
:102760001A784A4B5A70474B5A78484B1A70474B65
:102770001B88FB834D4B98474A4B9847FB7D03F0E2
:102780000F03FB75FB7D43F04003FB753D4AFB7D6A
:102790001370424B984704203D4B9847444B984751
:1027A0000422012137483C4B984700237B6502E017
:1027B0007B6D01337B657B6DB3F57A7FF8D33B4B43
:1027C0009847384B98472F4B38221A702D4B0022D0
:1027D0005A70324B9847324B9847324B9847324B9E
:1027E000984703202A4B9847032202212548264B6D
:1027F000984700233B6502E03B6D01333B653B6D31
:10280000B3F57A7FF8D31F4B38221A701D4B002284
:102810005A70032202211B481B4B9847194B1A7808
:102820001A4B5A70174B5A78184B1A70174B1B8853
:10283000BB82BB8A42F2107202FB03F2FB8B92FB5B
:10284000F3F39AB23B681A80184B9847154B984798
:10285000DCE20C4B00221A700A4B00225A700F4B1C
:1028600098470F4B98470F4B98470F4B98470320BB
:10287000074B9847032202210248034B9847002345
:10288000FB641AE0E80A0720B5170800E40A0720ED
:102890000D170800591B080045170800A91B080060
:1028A000391B0800E11B0800791C0800C51B080043
:1028B000911B0800FB6C0133FB64FB6CB3F57A7F62
:1028C000F8D3954B00221A70934B00225A700322C2
:1028D00002219148914B98478F4B1A78904B5A7030
:1028E0008D4B5A788E4B1A708D4B1B88FB838D4B0A
:1028F00098478D4B9847FB7C23F07003FB74FB7C5F
:1029000043F01003FB74844AFB7C1370874B984799
:102910000320874B9847874B9847032201217E4825
:10292000854B98470023BB6402E0BB6C0133BB645A
:10293000BB6CB3F57A7FF8D37A4B98477A4B9847BC
:10294000754B28221A70744B00225A70774B9847A7
:102950007A4B9847744B9847794B98470320744BB0
:102960009847032202216C486C4B984700237B64F4
:1029700002E07B6C01337B647B6CB3F57A7FF8D328
:10298000654B28221A70644B00225A7003220221E0
:102990006148624B9847604B1A78614B5A705E4BA6
:1029A0005A785F4B1A705E4B1B883B823B8A42F21F
:1029B000107202FB03F2FB8B92FBF3F39AB23B68BB
:1029C0001A80584B9847584B98471FE2524B0022A9
:1029D0001A70514B00225A70544B9847574B9847E6
:1029E000514B9847564B98470320514B9847032229
:1029F00002214948494B984700233B6402E03B6C65
:102A000001333B643B6CB3F57A7FF8D3424B002231
:102A10001A70414B00225A70032202213E483F4B5C
:102A200098473D4B1A783E4B5A703B4B5A783C4B7B
:102A30001A703B4B1B88FB833A4B98473A4B98479D
:102A4000FB7C23F04003FB74FB7C43F00103FB742D
:102A5000314AFB7C1370354B98470320344B984721
:102A6000344B9847032201212B48334B98470023CE
:102A7000FB6302E0FB6B0133FB63FB6BB3F57A7F17
:102A8000F8D3284B9847284B9847234B18221A70A5
:102A9000214B00225A70254B9847284B9847224BD0
:102AA0009847274B98470320214B98470322022140
:102AB00019481A4B98470023BB6302E0BB6B0133F4
:102AC000BB63BB6BB3F57A7FF8D3134B30221A701C
:102AD000114B00225A70032202210F480F4B9847D6
:102AE0000D4B1A780E4B5A700B4B5A780C4B1A70D0
:102AF0000B4B1B88FB81FB8942F2107202FB03F235
:102B0000FB8B92FBF3F39AB23B681A80054B984714
:102B1000054B98477AE100BFE80A0720B51708007F
:102B2000E40A0720C51B0800E11B0800A91B0800D8
:102B30000D170800791B080045170800391B08000D
:102B4000791C08008E4B00221A708D4B00225A709F
:102B50008C4B98478C4B98478C4B98478C4B98479D
:102B600003208C4B98470322022185488A4B9847C3
:102B700000237B6302E07B6B01337B637B6BB3F5EC
:102B80007A7FF8D37E4B00221A707D4B00225A7058
:102B9000032202217A48804B9847794B1A787F4B61
:102BA0005A70774B5A787D4B1A707C4B1B88FB838D
:102BB0007B4B9847754B9847FB7C23F00E03FB74C7
:102BC000FB7C43F00803FB746D4AFB7C13706D4B78
:102BD000984703206F4B9847724B98470322012177
:102BE0006748714B984700233B6302E03B6B01331E
:102BF0003B633B6BB3F57A7FF8D3694B9847634BE4
:102C000098475F4B20221A705D4B00225A705D4B33
:102C100098475D4B98475D4B98475D4B984703201D
:102C20005C4B98470322022155485B4B9847002391
:102C3000FB6202E0FB6A0133FB62FB6AB3F57A7F59
:102C4000F8D34F4B20221A704D4B00225A700322AA
:102C500002214B48504B9847494B1A784F4B5A70BA
:102C6000474B5A784D4B1A704C4B1B88BB81BB8924
:102C700042F2107202FB03F2FB8B92FBF3F39AB267
:102C80003B681A80464B9847404B9847BEE03C4B08
:102C900000221A703A4B00225A703A4B98473A4B2E
:102CA00098473A4B98473A4B98470320394B9847F7
:102CB000032202213248384B98470023BB6202E0CE
:102CC000BB6A0133BB62BB6AB3F57A7FF8D32C4B86
:102CD00000221A702A4B00225A700322022128482F
:102CE0002D4B9847264B1A782C4B5A70244B5A7808
:102CF0002A4B1A70294B1B88FB83294B9847234B7F
:102D00009847FB7D23F00F03FB75FB7D43F0040325
:102D1000FB751B4AFB7D13701A4B984704201D4B13
:102D20009847224B98470422012115481E4B98478B
:102D300000237B6202E07B6A01337B627B6AB3F52E
:102D40007A7FF8D3164B9847104B98470C4B30229C
:102D50001A700B4B00225A700A4B98470A4B98473F
:102D60000A4B98470A4B984703200A4B984703227F
:102D700002210348084B984700233B621BE000BF39
:102D8000E80A0720A91B0800391B0800E11B0800FE
:102D9000791C08000D170800B5170800E40A072081
:102DA000C51B0800791B080045170800911B080087
:102DB0003B6A01333B623B6AB3F57A7FF8D3154B2C
:102DC00030221A70134B00225A700322022111483C
:102DD000114B98470F4B1A78104B5A700D4B5A787D
:102DE0000E4B1A700D4B1B887B817B8942F210724F
:102DF00002FB03F2FB8B92FBF3F39AB23B681A805F
:102E0000074B9847074B984700E000BF18468037AC
:102E1000BD4680BDE80A0720B5170800E40A072070
:102E2000C51B0800E11B080080B582B000AF01217E
:102E30000020134B984700210020124B9847124B5B
:102E400080221A70104BC3225A70104B9847104BB7
:102E5000984701200F4B9847002202210A480E4B49
:102E6000984700237B6002E07B6801337B607B68CE
:102E70000A4A9342F8D900BF0837BD4680BD00BF5B
:102E80000516080059160800E80A0720A91B0800C3
:102E9000811A08000D170800451708007F96980052
:102EA00080B582B000AF01210020134B984700216C
:102EB0000020124B9847124B80221A70104BC322ED
:102EC0005A70104B9847104B984701200F4B98476A
:102ED000002202210A480E4B984700237B6002E043
:102EE0007B6801337B607B680A4A9342F8D900BF54
:102EF0000837BD4680BD00BF0516080059160800FA
:102F0000E80A0720A91B0800991A08000D170800F5
:102F1000451708007F96980080B584B000AF012166
:102F200001202E4B9847002101202D4B98472D4B17
:102F300080221A702B4BC3225A702B4B98472B4B75
:102F4000984702202A4B9847002202212548294B06
:102F500098470023FB6002E0FB680133FB60FB68DD
:102F6000254A9342F8D9002101201C4B98470021A3
:102F700001201B4B98470023BB6002E0BB68013374
:102F8000BB60BB681C4A9342F8D9164B00221A70EA
:102F90000220174B9847194B9847022201211148EC
:102FA000144B984700237B6002E07B6801337B6011
:102FB0007B68114A9342F8D90A4B00221A7002200A
:102FC0000B4B98470D4B9847022201210548094BAE
:102FD000984700BF1037BD4680BD00BF05160800EA
:102FE00059160800E80A0720A91B0800011B080061
:102FF0000D170800451708007F9698001D1B080054
:1030000080B584B000AF78607B681B783B727B68CA
:103010005B787B727B685B887B817B689B88BB81EC
:103020007B68DB88FB81BB68144A9361FB68134AA9
:10303000D361124B08229A71104B00221A600F4B79
:1030400003221A710D4B0122DA710C4B00225A71C6
:103050000A4B0B4ADA60094B4FF420121A6100BF89
:103060000648084B98470346012BF9D00120064B30
:10307000984700BF1037BD4680BD00BFB80A072083
:103080000000FC1F19040800D504080080B58CB0AE
:1030900000AF7860954B1B78DBB2012B6ED1032318
:1030A0003B7301237B737B681B88FB817B685B8898
:1030B0003B827B689B887B8207F10C0318468C4B14
:1030C000984703233B7302237B737B68DB88FB8178
:1030D0007B681B893B827B685B897B8207F10C03E1
:1030E0001846834B984703233B7303237B737B680A
:1030F0009B89FB817B68DB893B827B681B8A7B82A7
:1031000007F10C0318467A4B984703233B730423BB
:103110007B737B685B8AFB817B689B8A3B827B68D5
:10312000DB8A7B8207F10C031846714B9847032317
:103130003B7305237B737B681B8BFB817B685B8BFD
:103140003B827B689B8B7B8207F10C031846684BA4
:10315000984703233B7306237B737B68DB8BFB81E0
:103160007B681B8C3B827B685B8C7B8207F10C034A
:1031700018465F4B98475D4B00221A700023FB6294
:1031800002E0FB6A0133FB62FB6A5A4A9342F8D9B8
:10319000594B1B78DBB2012B14D103233B73012362
:1031A0007B737B681B88FB817B685B883B827B68C9
:1031B0009B887B8207F10C0318464D4B98474E4B7A
:1031C00000221A700023BB6202E0BB6A0133BB62BB
:1031D000BB6A484A9342F8D9484B1B78DBB2012BB3
:1031E00014D103233B7302237B737B68DB88FB8151
:1031F0007B681B893B827B685B897B8207F10C03C0
:1032000018463B4B98473D4B00221A7000237B62C7
:1032100002E07B6A01337B627B6A364A9342F8D9CB
:10322000374B1B78DBB2012B14D103233B730323F1
:103230007B737B689B89FB817B68DB893B827B6836
:103240001B8A7B8207F10C031846294B98472C4BAD
:1032500000221A7000233B6202E03B6A01333B62AA
:103260003B6A244A9342F8D9264B1B78DBB2012BE8
:1032700014D103233B7304237B737B685B8AFB813C
:103280007B689B8A3B827B68DB8A7B8207F10C032D
:103290001846174B98471B4B00221A700023FB61FE
:1032A00002E0FB690133FB61FB69124A9342F8D9E2
:1032B000154B1B78DBB2012B14D103233B73052381
:1032C0007B737B681B8BFB817B685B8B3B827B68A2
:1032D0009B8B7B8207F10C031846054B98470A4BE2
:1032E00000221A700023BB6113E000BF8C0107208D
:1032F000013008001FA107008D0107208E01072063
:103300008F0107209001072091010720BB6901333D
:10331000BB61BB69154A9342F8D9154B1B78DBB2E8
:10332000012B14D103233B7306237B737B68DB8B58
:10333000FB817B681B8C3B827B685B8C7B8207F10B
:103340000C0318460B4B9847094B00221A700023B8
:103350007B6102E07B6901337B617B69034A9342B5
:10336000F8D9002318463037BD4680BD1FA107009D
:10337000920107200130080080B58EB000AF786060
:103380000023FB8607F13203194601206F4B984753
:103390000346BB86BB8E002B04D17B8EBB81BA89D2
:1033A0007B681A8007F1320319460220674B984761
:1033B0000346BB86BB8E002B04D17B8EFB81FA8932
:1033C0007B685A8007F13203194603205F4B984708
:1033D0000346BB86BB8E002B04D17B8E3B823A8A90
:1033E0007B689A8007F1320319460520574B9847AE
:1033F0000346BB86BB8E002B04D17B8EBB82BA8A70
:103400007B681A8107F13203194606204F4B984713
:103410000346BB86BB8E002B04D17B8EFB82FA8ACF
:103420007B685A8107F1320319460720474B9847BA
:103430000346BB86BB8E002B04D17B8E3B833A8B2D
:103440007B689A8107F13203194608203F4B984761
:103450000346BB86BB8E002B04D17B8E7B837A8B8D
:103460007B68DA8107F1320319460A20374B984707
:103470000346BB86BB8E002B04D17B8EFB83FA8B6D
:103480007B685A8207F13203194609202F4B98476F
:1034900003469BB2BB837A8E7B681A8207F13203A4
:1034A00019460B20294B984703469BB23B847A8EE2
:1034B0007B689A8207F1320319460C20234B984708
:1034C00003469BB27B847A8E7B68DA8207F13203F3
:1034D00019460D201D4B984703469BB2BB847A8E3C
:1034E0007B681A8307F1320319461120174B98475E
:1034F00003469BB2BB857A8E7B681A8407F1320340
:1035000019460F20114B984703469BB23B853A8DD5
:103510007B689A8307F13203194610200B4B9847BA
:1035200003469BB27B857A8E7B68DA8307F1320390
:1035300019460E20054B984703469BB2FB847A8EB2
:103540007B685A8300BF3837BD4680BDA11D080087
:1035500080B500AF064B9847064B9847064B9847F7
:10356000064B9847064B9847064B984700BF80BDCF
:103570007D070800353D0800C5090800E11808006E
:10358000F1050800AD1C080080B586B000AFF860FA
:10359000B9607A6000237B61FB68012B1ED0FB6859
:1035A000022B1BD0FB68032B18D04FF0FF3319E020
:1035B0000E4B1A680E4B1868BB68591CB9601B7813
:1035C000194690470346002B02DA4FF0FF3309E01B
:1035D0007B6901337B617B68013B7B607B68002BEF
:1035E000E6D17B6918461837BD4680BD000B072021
:1035F000040B072080B489B000AFF860B9607A602E
:10360000BB681A017B689A4202D81023FB6101E073
:103610000823FB617B68DA00FB69B96801FB03F3EF
:103620005B081A44FB69B96801FB03F3B2FBF3F3CF
:10363000BB61BB69DB087B61BB6903F007033B61CE
:103640007B69002B03D07B69B3F5803F01D3012355
:103650000FE0FB69082B05D1FB685B6843F400228F
:10366000FB685A603B691A047B691A43FB681A625B
:10367000002318462437BD4680BC704780B582B011
:1036800000AF786078680D4B98477B6800225A60DD
:103690007B6800225A627B6800229A627868084B35
:1036A00098477868074B98477868074B9847786839
:1036B000064B984700BF0837BD4680BD513808000B
:1036C0006D3708009D370800B5370800D13708006E
:1036D00080B584B000AFF860B9607A60F8681A4BC2
:1036E00098471A4B00221A60BB68002B09D0BB68B0
:1036F0001B687A681946F868154B98470346002BF3
:1037000001D001231BE0BB685A68BB689B681A4361
:10371000BB681B691A43BB68DB681A430B4B1B6809
:1037200013430A4A1360094B1B68084A1360FB687D
:103730005A68064B1B681A43FB685A6000231846F8
:103740001037BD4680BD00BF7D360800040A072043
:10375000F535080080B483B000AF78607B68402204
:103760001A6000BF0C37BD4680BC704780B483B080
:1037700000AF78607B6888221A6000BF0C37BD46B6
:1037800080BC704780B483B000AF78607B68102243
:103790001A6000BF0C37BD4680BC704780B483B050
:1037A00000AF78607B6824221A6000BF0C37BD46EA
:1037B00080BC704780B483B000AF78607B684FF402
:1037C00080721A6000BF0C37BD4680BC704700BFD6
:1037D00080B483B000AF78607B684FF400221A6039
:1037E00000BF0C37BD4680BC704700BF80B483B0BB
:1037F00000AF786039607B685B6903F00203002BDF
:1038000001D1012305E03B68C3F308027B68DA615C
:10381000002318460C37BD4680BC704780B483B087
:1038200000AF786039607B685B6903F00103002BAF
:1038300001D1012306E07B689B69C3F308023B6862
:103840001A60002318460C37BD4680BC704700BF85
:1038500080B483B000AF78607B68044AC3F8E4208A
:1038600000BF0C37BD4680BC704700BF00415355B8
:1038700080B485B000AF786039600023FB607B685E
:10388000AC221A603B681A683B685B68B2FBF3F3D2
:103890001B09FB60FB68002B03D0FB68B3F5803F7E
:1038A00001D301230FE07B68FA681A623B689A68CB
:1038B0007B685A607B6840F20222C3F820217B6853
:1038C00050221A60002318461437BD4680BC70474A
:1038D00080B483B000AF78600B46FB707B685B6997
:1038E00003F00203002B01D1012303E0FA787B6887
:1038F000DA61002318460C37BD4680BC704700BF14
:1039000080B483B000AF786039607B685B6903F096
:103910000103002B01D1012305E07B689B69DAB22A
:103920003B681A70002318460C37BD4680BC7047B0
:1039300080B483B000AF78607B68072B25D801A2E4
:1039400052F823F0653908006B3908007139080016
:10395000773908007B3908007F390800833908006F
:10396000873908004FF4FA4310E04FF400430DE0AC
:103970004FF400430AE0084B08E0084B06E0084B10
:1039800004E0074B02E0064B00E0002318460C372A
:10399000BD4680BC704700BF00093D0000127A00A0
:1039A000001BB70080B500AF0620044B98470246C5
:1039B0001346DB009B1A5B00184680BD31390800B6
:1039C00080B500AF024B984703465B08184680BDA0
:1039D000A539080080B582B000AF78607868034BE5
:1039E000984700BF0837BD4680BD00BFFD470800AF
:1039F00080B58CB000AF78603960404B9847034683
:103A00007B623B681B68BB623B689B68FB623B68F0
:103A10001B68FB603B685B683B613B689B687B6144
:103A20003B68DB68BB610023FB617B68344A9342DF
:103A300008D10820334B984707F1240319467868CA
:103A4000314B98477B68314A934211D111202D4B5D
:103A500098472A4B9847024607F10C0319467868A5
:103A60002B4B984778682B4B984778682A4B984798
:103A70007B682A4A934211D11220224B98471F4B50
:103A80009847024607F10C0319467868204B98477F
:103A90007868204B984778681F4B98477B68204A86
:103AA000934211D11320174B9847144B9847024665
:103AB00007F10C0319467868154B98477868154B41
:103AC00098477868144B98477B68164A934211D1FF
:103AD00014200C4B9847094B9847024607F10C03FA
:103AE000194678680A4B984778680A4B984778686F
:103AF000094B984700BF3037BD4680BDC13908002B
:103B000000080E40D53908007138080000800940CF
:103B1000D1360800553708008537080000C0094035
:103B200000000A4000400A4080B582B000AF7860D3
:103B30000B46FB707B68274A93420AD100BFFB7893
:103B400019467868244B98470346002BF7D1012388
:103B50003CE07B68214A93420AD100BFFB781946BA
:103B600078681F4B98470346002BF7D101232DE0BF
:103B70007B681C4A93420AD100BFFB7819467868DB
:103B8000174B98470346002BF7D101231EE07B68B3
:103B9000154A93420AD100BFFB7819467868104B4A
:103BA00098470346002BF7D101230FE07B680F4AAB
:103BB00093420AD100BFFB7819467868084B9847B2
:103BC0000346002BF7D1012300E0002318460837F5
:103BD000BD4680BD00080E40D13808000080094075
:103BE000ED37080000C0094000000A4000400A40CC
:103BF00080B584B000AF786039600023FB607B68DB
:103C00002B4A934207D100BF39687868294B9847FF
:103C10000346002BF8D17B68274A93420DD100BFA1
:103C200007F10C0319467868244B98470346002B8C
:103C3000F6D1FB68DAB23B681A707B68204A93427F
:103C40000DD100BF07F10C03194678681B4B98474C
:103C50000346002BF6D1FB68DAB23B681A707B682A
:103C6000184A93420DD100BF07F10C03194678683A
:103C7000124B98470346002BF6D1FB68DAB23B683B
:103C80001A707B68104A93420DD100BF07F10C03F4
:103C900019467868094B98470346002BF6D1FB6814
:103CA000DAB23B681A7000BF1037BD4680BD00BF56
:103CB00000080E4001390800008009401D38080046
:103CC00000C0094000000A4000400A4080B582B0B0
:103CD00000AF786039600F4A7B6813600E4B0F4A63
:103CE0001A600F4B0F4A1A60396878680E4B984774
:103CF0000E4B1B689B68002118460D4B98470B4BD9
:103D00001B685B6800211846094B984700BF0837BD
:103D1000BD4680BD040B0720000B0720293B08008F
:103D2000B00A0720F13B0800F1390800C805072058
:103D3000314E080080B584B000AF3B4600221A60C7
:103D40005A609A60DA604FF4E1333B604FF40063ED
:103D5000BB603B4619460548054B98470548064B4E
:103D6000984700BF1037BD4680BD00BF00080E4019
:103D7000CD3C08007C690800214E080080B582B067
:103D800000AF78607B68072B31D801A252F823F08E
:103D9000ED3D0800B13D0800B93D0800C13D0800F7
:103DA000C93D0800D13D0800D93D0800E33D0800A9
:103DB0000020114B98471AE001200F4B984716E05E
:103DC00000200E4B984712E010200C4B98470EE055
:103DD00020200A4B98470AE03E210020084B9847D4
:103DE00005E03E210120064B984700E000BF00BFE0
:103DF0000837BD4680BD00BF49460800B5460800EB
:103E00002547080080B582B000AF78607B68072B3B
:103E100026D801A252F823F0393E08003D3E0800A2
:103E20003D3E08004F3E08004F3E08004F3E080050
:103E30004F3E08004F3E0800012312E00B4B98470D
:103E40000346002B14BF01230023DBB209E0084B1B
:103E500098470346002B14BF01230023DBB200E088
:103E6000002318460837BD4680BD00BF81460800C4
:103E70009D47080080B483B000AF78607B68072B53
:103E800025D801A252F823F0A93E0800AF3E080051
:103E9000B53E0800BB3E0800BF3E0800C33E080018
:103EA000C73E0800CB3E08004FF4FA4310E04FF441
:103EB00000430DE04FF400430AE0084B08E0084BD4
:103EC00006E0084B04E0074B02E0064B00E000234D
:103ED00018460C37BD4680BC704700BF00093D0046
:103EE00000127A00001BB70080B582B000AF034615
:103EF000FB7100BFFB791846054B9847034683F0DA
:103F00000103DBB2002BF5D100BF0837BD4680BDF1
:103F1000053E080080B586B000AFF8607A603B606F
:103F20000B46FB727B68002B07D13B68002B04D14A
:103F3000FB684FF470021A6019E0FB7A18460E4BCA
:103F4000984702467B68B2FBF3F37B617B693A6872
:103F500002FB03F37B613B68013B1A04074B1340F0
:103F60007A68D2B2134343F47C52FB681A6000BFF4
:103F70001837BD4680BD00BF753E08000000FF0732
:103F800080B582B000AF786039603B68002B08D103
:103F9000094B9847094A7B681B6843F000539362BA
:103FA00005E0064A7B681B6843F48033D36100BF99
:103FB0000837BD4680BD00BFB547080000060E406B
:103FC00080B582B000AF78607B68002B03D1054BD1
:103FD0009847034602E0044B9847034618460837C3
:103FE000BD4680BDCD470800E547080080B582B0DA
:103FF00000AF0346FB71FB79033B042B08D8FB7928
:104000001846064B9847FB791846054B984700E041
:1040100000BF00BF0837BD4680BD00BF7D3D080022
:10402000E93E080080B582B000AF786000BF7868D4
:10403000044B98470346002BF9D000231846083755
:10404000BD4680BDC13F080080B500AF0620044BCF
:10405000984702461346DB009B1A5B00184680BD5A
:10406000753E080080B500AF024B984703465B08D9
:10407000184680BD4940080090B583B000AF114894
:10408000114B98470620114B9847381D0E230122EB
:1040900006210F4CA0473B1D002118460D4B9847A9
:1040A00000200D4B984710200C4B98470C4B98471D
:1040B0000C4B984703461846034B984700BF0C37F4
:1040C000BD4690BD00BD0105D1000720ED3F0800B1
:1040D000153F0800813F080025400800C945080039
:1040E0002D4908006540080080B582B000AF7860B7
:1040F0007868034B984700BF0837BD4680BD00BFB6
:10410000FD47080080B500AF0B20064B98470C20F8
:10411000044B98470D20034B98470E20014B9847BE
:1041200000BF80BDE940080080B500AF174B4FF4D9
:1041300000425A60164B98474FF060513B20154B98
:1041400098474FF060515520124B98474FF06051FF
:104150005620104B9847104968200E4B98470F493E
:104160005C200C4B98470E4A4FF440710D480E4BA3
:1041700098474FF000612B20064B98474FF00061A5
:104180002A20044B984700BF80BD00BF501A0E4044
:104190000541080089430800790000280100002833
:1041A00001000008000E0E40AD43080080B485B049
:1041B00000AFF860B9607A607B68002B03D0FB68C1
:1041C000BA685A6602E0FB68BA681A6600BF14371C
:1041D000BD4680BC704700BF80B487B000AFF860B8
:1041E000B9607A60FB687A685A64BB68B3F1805F33
:1041F0001FD0B3F1805F05D8002B27D0B3F1006F3B
:104200000AD01FE0B3F1405F20D0B3F1605F1DD052
:10421000B3F1205F1AD015E0FB681B6F7B61FB6870
:104220001A6F7B68D9437B690B401A40FB681A6799
:1042300008E0FB681B6F7B617A687B691A43FB6847
:104240001A6700BFFB687A685A6000E000BF1C373D
:10425000BD4680BC704700BF80B584B000AFF86039
:10426000B9607A60B968F868194B98477B6803F0C1
:1042700001031A46B968F868164B98477B6803F043
:104280000A03002B03D0FB68BA681A6202E0FB68DD
:10429000BA685A627B6803F00203002B04D0FB6803
:1042A000BA68C3F8802008E07B6803F00803002B9D
:1042B00003D0FB68BA68C3F88420FB68BA685A6107
:1042C000FB68BA681A6000BF1037BD4680BD00BFEA
:1042D0003D430800AD41080080B584B000AFF860F0
:1042E000B9607A603B60B968F868124B9847BA6960
:1042F000B968F868104B98473B68002B03D0FB68FF
:10430000BA681A6502E0FB68BA685A657B68002BD8
:1043100003D0FB68BA681A6302E0FB68BA685A63A4
:10432000FB68BA681A61FB68BA681A6000BF103788
:10433000BD4680BD3D430800AD41080080B483B058
:1043400000AF786039607B683A685A6400BF0C3708
:10435000BD4680BC704700BF80B483B000AF7860BA
:104360007B68DB6C18460C37BD4680BC704700BFCD
:1043700080B483B000AF78607B689B6C18460C37C4
:10438000BD4680BC704700BF80B584B000AF786088
:1043900039607868044B9847F86000BF00BF184642
:1043A0001037BD4680BD00BF9144080090B587B06E
:1043B00002AFF860B9607A607B6803F0F043B3F154
:1043C000205F2ED0B3F1205F06D8B3F1006F0AD082
:1043D000B3F1805F16D04CE0B3F1405F27D0B3F16A
:1043E000605F24D045E0BA684FF00061F868244B64
:1043F00098477B6803F001031A46B968F868214BB7
:10440000984738E0BA684FF08051F8681C4B9847DD
:104410007B6803F001031A46B968F868194B98479E
:1044200029E07A68B968F868174B984723E07B68F9
:1044300003F06053B3F1605F0CBF01230023DBB2D4
:104440001A467B6803F00403002B14BF01230023EA
:10445000DBB219467B6803F00103002B14BF012374
:104460000023DBB200930B46B968F868074CA047FD
:1044700001E0002300E0012318461437BD4690BD3B
:10448000D9410800AD41080059420800D94208004E
:1044900080B485B000AF78607B685B0903F50013DA
:1044A00003F207735B02FB60FB6818461437BD46D6
:1044B00080BC704780B584B000AF786039607868A0
:1044C000264B9847F8607868254B98470246FB686A
:1044D0001340FB60FB68002B3CD00023BB6034E042
:1044E000204ABB681B0113441A683B689A4226D1D4
:1044F0001C4ABB681B01134404331A68FB68134051
:10450000002B1CD0174ABB681B0113440C331B68DB
:104510001449BA6812010A4410681249BA681201B3
:104520000A4404321268114698470E4ABB681B01C0
:10453000134404331B68DB43FA681340FB60BB6819
:104540000133BB60BB68062B03D8FB68002BC7D1C7
:1045500000E000BF00BF1037BD4680BD59430800D2
:1045600071430800080A072080B500AF0B210248FC
:10457000024B984700BF80BD000E0E40B5440800B6
:1045800080B500AF0C210248024B984700BF80BDA8
:1045900000100E40B544080080B500AF0D21024860
:1045A000024B984700BF80BD00120E40B544080082
:1045B00080B500AF0E210248024B984700BF80BD76
:1045C00000140E40B544080080B485B000AF786098
:1045D0001C491C4B1B6B23F070027B6813430B635D
:1045E0004FF40063FB6007E0FB68002B01D101235F
:1045F00023E0FB68013BFB60124B9B6E03F008035A
:10460000002BF1D00F4A0F4B1B6B23F0030343F039
:10461000020313634FF40063FB6007E0FB68002BA9
:1046200001D1012309E0FB68013BFB60054B9B6E58
:1046300003F00803002BF1D0002318461437BD46C1
:1046400080BC704700060E4080B483B000AF786035
:104650007B68012B07D1084A074B9B6843F0254331
:1046600043F480139360044B044A1A6000BF0C3774
:10467000BD4680BC704700BF101A0E40080000A560
:1046800080B400AF094B5B6903F08003002B07D0B7
:10469000074B9B6E03F08003002B01D0012300E049
:1046A00000231846BD4680BC704700BF101A0E405C
:1046B00000060E4080B483B000AF7860184A184BF3
:1046C0001B6A43F45C1343F00803136200BF144BEE
:1046D0009B6E03F40033002BF9D01149104B1B6A79
:1046E00023F45C1323F070037A68134343F45C13E0
:1046F0000B6200BF0A4B9B6E03F40033002BF9D012
:10470000074A074B1B6A23F09B7323F4803343F45F
:104710005C13136200BF0C37BD4680BC704700BFFE
:1047200000060E4080B483B000AF786039607B68CB
:10473000002B08D01649164B1B6A164A1A40164B16
:1047400013430B621EE01249114B1B6A23F45C13E6
:1047500023F003033A68120292B2134343F45C134A
:1047600043F001030B6200BF094B9B6E03F0010392
:10477000002BF9D0064A064B1B6A43F09B7343F4A7
:104780008033136200BF0C37BD4680BC704700BF4A
:1047900000060E40FCFFC8FE0200370180B400AFE7
:1047A000034B9B6E03F480331846BD4680BC7047B4
:1047B00000060E4080B400AF034B4FF000529A62E7
:1047C00000BFBD4680BC704700060E4080B400AFFD
:1047D000034B9B6E03F002031846BD4680BC704736
:1047E00000060E4080B400AF034B9B6E03F0400305
:1047F0001846BD4680BC704700060E4080B483B0AA
:1048000000AF78607B682C2B01D901232FE07B68F7
:104810001F2B13D8184B9A6901217B6801FA03F307
:104820001A4001217B6801FA03F39A421ED0124A12
:1048300001217B6801FA03F3136117E07B68203BD9
:104840007B600D4BD3F8082101217B6801FA03F34B
:104850001A4001217B6801FA03F39A4206D0064A06
:1048600001217B6801FA03F3C2F8003100231846E6
:104870000C37BD4680BC704700060E4080B400AFC8
:10488000FEE700BF80B582B000AF1E4B7B601E4BC1
:104890003B607A683B689A420CD007E03B681A1D7F
:1048A0003A607A68111D796012681A603B68174A8D
:1048B0009342F3D3164B3B6004E03B681A1D3A6009
:1048C00000221A603B68134A9342F6D3124B7B6076
:1048D000124A7B6823F0604323F07F0393607B6878
:1048E000B3F1005F09D37B680D4A934205D80B4AA8
:1048F0000A4B9B6843F0005393600A4B98470A4B5E
:104900009847FEE7FC69080000000720DC09072043
:10491000DC090720540B07200000080000ED00E030
:10492000FFFF0F20CD4C08006D4B080080B400AF96
:10493000574B1B6B03F00303032B00F28A8001A289
:1049400052F823F05549080075490800C549080088
:10495000C54908004F4B5B6903F08003002B04D06E
:104960004D4B4FF400421A6073E04B4B4FF4FA4248
:104970001A606EE0464B1B6A03F08073002B03D075
:10498000454B464A1A6064E0434B454A1A60404B27
:104990001B6A03F07003102B04D0202B08D0002BCF
:1049A0000ED00EE03C4B1B685B003B4A136008E0F6
:1049B000394B1A6813465B001344374A136000E012
:1049C00000BF46E0324B1B6A03F08073002B03D01C
:1049D000314B324A1A601CE02F4B314A1A602C4B83
:1049E0001B6A03F07003102B04D0202B08D0002B7F
:1049F0000ED00EE0284B1B685B00274A136008E0CE
:104A0000254B1A6813465B001344234A136000E0E9
:104A100000BF1F4B1B6B03F00303022B15D11C4B74
:104A20009A6A204B13401B0C01331B4A126802FB8D
:104A300003F3194A1360164B9B6ADBB2164A1268DD
:104A4000B2FBF3F3144A136002E0134B164A1A60E8
:104A500000BF0F4B1B6B03F07003702B08D10E4B84
:104A60001B68124AA2FB03235B080B4A13600AE08F
:104A7000074B1B6B03F070031B09074A126822FAED
:104A800003F3054A136000BFBD4680BC704700BFFA
:104A900000060E40101A0E4098010720001BB700B8
:104AA00000093D000000FF07001C4E0EABAAAAAA99
:104AB00080B485B000AF7860104BFB60104B1B6872
:104AC000002B02D10E4B0F4A1A600D4B1B68BB60C6
:104AD000BA687B681A44FB689A4202DD4FF0FF33E4
:104AE00006E0074B1A687B681344054A1360BB68ED
:104AF00018461437BD4680BC704700BFFC7F0820B5
:104B0000780A0720582B072080B483B000AF786064
:104B10004FF0FF3318460C37BD4680BC704700BFCE
:104B200080B483B000AF786039603B684FF40052C6
:104B30005A60002318460C37BD4680BC704700BF42
:104B400080B483B000AF7860012318460C37BD46AF
:104B500080BC704780B485B000AFF860B9607A60FF
:104B6000002318461437BD4680BC704780B582B01C
:104B700000AF454B9847454B984700237B6044481E
:104B8000444B9847444B5B899BB21A461346DB0063
:104B900013443F4A528992B21344404A82FB0312A3
:104BA0009210DB17D31A9AB23B4B5A813A4B5B8A6D
:104BB0009BB21A461346DB001344354A528A92B21E
:104BC0001344364A82FB03129210DB17D31A9AB2AF
:104BD000314B5A82304B1B8B9BB21A461346DB007B
:104BE00013442B4A128B92B213442C4A82FB0312B9
:104BF0009210DB17D31A9AB2274B1A83264B5B8B82
:104C00009BB21A461346DB009B1ADA00D31A204ADD
:104C1000528B92B22249A1FB0212520892B2134463
:104C2000204A82FB03121211DB17D31A9AB21A4BD5
:104C30005A831D4B1B78DBB2012B1DD01B4B1B78FD
:104C4000DBB2012B18D01A4B1B78DBB2012B13D02F
:104C5000184B1B78DBB2012B0ED0174B1B78DBB245
:104C6000012B09D0154B1B78DBB2012B04D0144B60
:104C70001B78DBB2012B82D10548124B9847124BAF
:104C800000221A70D5E700BF2941080051350800FD
:104C9000080B0720793308002C0B0720676666662F
:104CA000ABAAAAAA1F85EB518C0107208D01072012
:104CB0008E0107208F010720900107209101072016
:104CC000920107208D300800FC09072070B50F4EB7
:104CD0000F4D761BB61018BF002405D0013455F8CF
:104CE000043B9847A642F9D10A4E0B4D01F074FEE1
:104CF000761BB61018BF002406D0013455F8043BCB
:104D00009847A642F9D170BD70BD00BFE4690800A4
:104D1000E4690800EC690800E469080070B48407DD
:104D200046D0541E002A41D0CDB2034602E0621E96
:104D3000E4B3144603F8015B9A07F8D1032C2ED98B
:104D4000CDB245EA05250F2C45EA054519D9264679
:104D500003F11002103E0F2E42F8105C42F80C5C7A
:104D600042F8085C42F8045C02F11002F2D8A4F1A7
:104D7000100222F00F0204F00F041032032C13442F
:104D80000DD91E462246043A032A46F8045BFAD897
:104D9000221F22F003020432134404F003042CB156
:104DA000C9B21C4403F8011BA342FBD170BC70477D
:104DB00014460346C2E700BFF0B5054689B0084671
:104DC0000C4600F0E5F8431C144F0393AB6B01262F
:104DD00004A9022204940590AC68069707960191F5
:104DE0000292B3B1B4F90C309A0406D4626E43F463
:104DF000005322F40052A38162662146284601AA8C
:104E000000F0F4FB002814BF4FF0FF300A2009B077
:104E1000F0BD284600F096FAE4E700BFD469080028
:104E2000024B01461868FFF7C7BF00BFC80507203F
:104E300000290CBF022200224FF4806300F000B86A
:104E40002DE9F043514D83B02D6804460F4690463E
:104E50001E4615B1AB6B002B79D0B8F1020F04D010
:104E6000B8F1010F7FD8002E7DDB2146284600F0E7
:104E7000D5F9216B41B104F14003994202D0284693
:104E800000F0CCFA00232363B4F90C300022A261B5
:104E900062601A0654D423F44A6323F00303B8F182
:104EA000020FA38139D001AB6A462146284600F0A3
:104EB00049FDA3891843A08126B327B3AB6B002B10
:104EC0004DD0009BB4F90C009E421CBF40F4006022
:104ED000A081B8F1010F08BF40F0010083B208BF04
:104EE000A08103F0080080B227602761666118B3D3
:104EF00013F001002FD000207642A661A06003B01D
:104F0000BDE8F083009E304600F090FD074668B390
:104F1000A38943F08003A381D0E7002004F143027A
:104F200043F0020300250121A381A56022602261D4
:104F3000616103B0BDE8F083A06003B0BDE8F08319
:104F40002169284600F06AFAB4F90C30A3E7284634
:104F500000F0F8F981E7A66003B0BDE8F0832846C9
:104F600000F0F0F9ADE74FF0FF30E2E7DDF8009038
:104F7000B14506D0484600F059FD074608B14E46F7
:104F8000C6E7B4F90C304FF0FF30C7E7C80507207B
:104F900020F0030110F00300C0F1000051F8043BC1
:104FA00000F1040C4FEACC0C6FF000021CBF22FA97
:104FB0000CF213434FF0010C4CEA0C2C4CEA0C4C55
:104FC000A3EB0C0222EA030212EACC1204BF51F84E
:104FD000043B0430F4D0C2F1000102EA0102B2FA4B
:104FE00082F2C2F11F0200EBD200704738B5304B9D
:104FF000054618680C4610B1836B002B38D0B4F905
:105000000C2093B218070CD52069A8B113F0010247
:105010001ED0636900225B42A361A260F0B1002050
:1050200038BDD9063BD5580725D4206942F008037E
:10503000A3819BB20028E9D103F42072B2F5007F6E
:10504000E4D02846214600F0ADFCA3892069DDE7C5
:10505000990758BF6269A2600028E0D1B4F90C300A
:105060001A06DDD543F04003A3814FF0FF3038BD71
:1050700000F068F9C3E7216B51B104F14003994294
:1050800004D0284600F0CAF9B4F90C2000232363A9
:105090002069002322F0240284E80900C6E742F0D8
:1050A000400209232B604FF0FF30A28138BD00BFC2
:1050B000C8050720024B13B1024800F005B870473D
:1050C0000000000059530800002301461A46184604
:1050D00001F0DABAB1F90C302DE9F0419AB20D467F
:1050E000110780463CD46A6843F40063002AAB8110
:1050F00073DDAC6A002C4BD09BB203F480520021CC
:1051000092B2D8F80060C8F80010002A69D02A6D61
:105110005F0705D569682B6B521A0BB1EB6BD21A7E
:105120000023E9694046A047441C3CD0B5F90C3047
:10513000296923F400630022AB81DB0485E80600C3
:1051400049D4296BC8F8006011B305F140039942B6
:1051500002D0404600F062F900202863BDE8F081EB
:105160002E69AEB190072C680CBF6B6900232E60CE
:10517000A41BAB600AE0234632466F6AE9694046E9
:10518000B8470028A4EB0004064404DD002CF2DC40
:105190000020BDE8F081AB894FF0FF3043F04003C1
:1051A000AB81BDE8F081D8F800201D2AF3D81A4B56
:1051B000D34003F0010383F00104002BEBD0B5F9D9
:1051C0000C30296923F400632960D9046C60AB8139
:1051D000B7D5002AB5D12865B3E7EA6B002A88DC89
:1051E000D6E70123E9694046A047431C024602D0A6
:1051F000AB89AC6A8CE7D8F80030002BF8D01D2BB7
:1052000001D0162B02D1C8F80060C1E7AB8943F08A
:105210004003AB81BDE8F0810100402010B5044699
:1052200082B008B1836B53B1B1F90C0008B902B078
:1052300010BD204602B0BDE81040FFF74BBF019102
:1052400000F080F80199EFE7014900F053BB00BF7F
:10525000516708002DE9F04F074635487D68002466
:1052600007F53B7204230321F863C7F8E412C7F87B
:10527000E822C7F8E04283B02C606C60AC606C66DA
:10528000EC812C616C61AC61AB81214605F15C0065
:105290000822FFF743FDDFF89CB0BE68DFF898A056
:1052A000DFF89890DFF8988001230922C5F820B034
:1052B000C5F824A0C5F82890C5F82C80ED612146DA
:1052C000F381B28106F15C0034607460B46074668E
:1052D00034617461B46108220193FFF71FFDFD681A
:1052E00012200222F661C6F820B0C6F824A0C6F843
:1052F0002890C6F82C802146A881EA812C606C6039
:10530000AC606C662C616C61AC6105F15C000822DC
:10531000FFF704FD019BED61C5F820B0C5F824A09E
:10532000C5F82890C5F82C80BB6303B0BDE8F08FAA
:1053300049520800D5650800F9650800356608007F
:1053400055660800836B03B17047FFF783BF00BF4A
:10535000704700BF704700BF38B5074D074C2C1B86
:10536000A41005D0013C55F8043D9847002CF9D114
:10537000BDE8384001F03ABBFC690800F869080054
:10538000F8B50C46224F064600F024FFBB685D6866
:1053900025F00305291B01F6EF7121F47F6121F04F
:1053A0000F01A1F58054B4F5805F07DB0021304682
:1053B00001F0FEF8BB682B44984204D0304600F060
:1053C0000BFF0020F8BD6142304601F0F1F80130DA
:1053D0000DD0104BBA6819682D1B45F001053046F9
:1053E000091B5560196000F0F7FE0120F8BD00218F
:1053F000304601F0DDF8BA68831A0F2BDEDD064C6B
:105400000449246843F00103001B53600860D5E79A
:10541000CC050720880A0720D8090720002945D095
:105420002DE9F0410D46804600F0D4FE55F8047C8D
:105430006A49A5F1080427F00103E2188E68506854
:10544000B24220F0030062D0FE0750600BD455F842
:10545000087C01F1080EE41BA5683B4475456FD03C
:10546000E768EF60BD6015186D68ED0742D543F041
:1054700001026260E350B3F5007F18D2DB08486890
:105480009D100122013351F8337002FA05F501EB4A
:10549000C3022843083AE260A760486041F83340FD
:1054A000FC604046BDE8F04100F096BE70475A0AE5
:1054B000042A53D89A0902F139077F0002F138050E
:1054C00001EB870051F827200838904243494DD01E
:1054D000516821F003018B4202D292689042F7D1C9
:1054E000D068E060A2608460D4604046BDE8F041CE
:1054F00000F072BE95683A4F0344BD423FD0D06879
:1055000043F00102E86085606260E350B3E7FF07A3
:10551000034407D455F8085C641BE268A0682B4478
:10552000C26090602F4A43F00100126860609342AD
:105530008C60B6D32C4B40461968FFF721FFB0E7CB
:1055400011184968C90744D491680344D26843F0EC
:105550000100CA6091606060E350A2E7142A17D886
:1055600002F15C077F0002F15B05A9E7AA104B6816
:10557000012505FA02F213434B600246B1E743F0FE
:1055800001024C610C61E560A5606260E35088E750
:10559000542A06D81A0B02F16F077F0002F16E053C
:1055A0008EE7B2F5AA7F06D8DA0B02F178077F0002
:1055B00002F1770584E740F25450824206D89A0CF3
:1055C00002F17D077F0002F17C0579E7FE277E2549
:1055D00076E743F001026260E35062E7CC05072002
:1055E000D4050720D4090720840A07209368002BDC
:1055F00000F0AB802DE9F04F8B8985B00C46190780
:105600000290164628D5226932B303F002081FFA29
:1056100088F0356878B34FF00009C846DFF8D0A2AB
:10562000B8F1000F00F08B80D04543464A4628BFB2
:105630005346E1690298676AB847002840F3A5809D
:10564000B36881441B1AC0EB0808B360002BE7D194
:10565000002005B0BDE8F08F21460298FFF7C6FC98
:10566000002840F03C81A389356803F002081FFA46
:1056700088F00028CFD113F0010940F090804F4608
:105680000196002F56D09A05D4F808805FD547457B
:10569000C246C0F0BF8013F4906F00F0BD80626915
:1056A0002068216902EB4208C1EB000A08EBD878B8
:1056B0000AF101004FEA680838444045424684BF79
:1056C000804642465B0540F1F2801146029800F0A8
:1056D000B5F98346002800F005815246216900F0A3
:1056E0009FFCA38923F4906343F08003A381CAEB5A
:1056F00008030BEB0A00C4F81480BA46B846C4F895
:1057000010B02060A3605246494600F0FFFCA0683C
:105710002368C8EB0000A060384653442360019A18
:10572000814493683F1A1B1A9360002B90D0A38981
:10573000002FA8D1D5F800906F680835A1E7D5F8FB
:105740000090D5F8048008356AE70020704720688B
:105750002369984203D86269974280F08380B845F4
:1057600028BFB8464946424600F0D0FCA3682268EC
:10577000C8EB03034244A3602260002B48D12146BA
:105780000298FFF74BFD002842D0B4F90C3043F0EB
:1057900040034FF0FF30A38105B0BDE8F08F804695
:1057A000824681460190B9F1000F29D0019B002B60
:1057B0004BD0C845C34628BFCB46206823695F4607
:1057C0009842626903D9A36813449B455CDC934506
:1057D00024DB1346676A5246E1690298B847071E00
:1057E000D3DDB8EB070827D0B368BA44DB1BC7EB9F
:1057F0000909B360002B3FF42BAFB9F1000FD5D1ED
:105800000023D5F800A0D5F8049001930835CAE725
:10581000404684E7B846BA46206874E75A4651467F
:1058200000F074FCA2682368CBEB02025B44B8EB87
:105830000708A2602360D7D121460298FFF7EEFC4B
:105840000028A2D1CDF80480CEE74A460A2150466E
:1058500000F0A0FB00283DD001300123CAEB000876
:105860000193A6E76FF00043BB4228BF3B4693FB82
:10587000F2F3E16902FB03F302984A46666AB04715
:1058800000283FF74CAF80E71A465146039300F0DB
:105890003DFC2268039B21461A4422600298FFF7D0
:1058A000BDFC039B00287FF470AF1F4699E7029868
:1058B00000F094FC834600287FF419AF029D216913
:1058C0002846FFF7ABFDB4F90C300C2223F080031F
:1058D0002A605CE7012309F10108019369E74FF0B1
:1058E000FF30B6E6029A0C231360B4F90C304EE791
:1058F00000FCFF7F2DE9F84310F538761ED088466E
:1059000007464FF000097568B468013D10D4A389BB
:10591000013D012B08D9B4F90E30013304D02146E2
:105920003846C04749EA00096B1C04F16804EED10F
:105930003668002EE7D14846BDE8F883B1464846B0
:10594000BDE8F88370B50E46B1F90E1090B000298D
:1059500014461D4614DB01AA00F03CFF00280FDBB3
:10596000029A4FF4806302F47042A2F50052B2FA38
:1059700082F24FF4006052092A60236010B070BDBB
:10598000B289002002F0800292B228601AB140234E
:10599000236010B070BD10464FF48063236010B0D8
:1059A00070BD00BF8A890B46920706D501F14302FC
:1059B00001211A601A6159617047F0B583B001ABDB
:1059C0006A460C460546FFF7BDFF00990646284685
:1059D00000F034F8B4F90C30D0B19DE80600124F55
:1059E00043F08003EF63A3812060206161611AB9F5
:1059F0003343A38103B0F0BD2846B4F90E1000F084
:105A0000FDFEB4F90C300028F2D043F00103EFE7BB
:105A10009A05EFD404F1430243F002030121A3816C
:105A2000226022616161E5E749520800024B0146AC
:105A3000186800F003B800BFC80507202DE9F04F33
:105A400001F10B05162D83B0064640F2A08035F01B
:105A5000070500F1C080A94200F2BD8000F0BAFB4A
:105A6000B5F5FC7FC0F090826B0A00F0BB80042B80
:105A700000F27781A80900F1390E4FEA4E01383063
:105A8000BE4F07EB81014C680839A14207D1AEE057
:105A9000002A80F2AE80E468A14200F0A88063682A
:105AA00023F003035A1B0F2AF2DDB4493C6901F1CC
:105AB000080E744500F0A881636823F003035A1BA5
:105AC0000F2A00F38E81002AC1F814E0C1F810E01B
:105AD00080F29380B3F5007F80F05C81DB084A6838
