:0200000280007C
:1000000068530720F58F0900ED8F0900ED8F090077
:10001000ED8F0900ED8F0900ED8F09000000000051
:10002000000000000000000000000000ED8F09004B
:10003000ED8F090000000000ED8F0900015009005C
:10004000ED8F0900ED8F0900ED8F0900ED8F09009C
:10005000ED8F0900ED8F0900ED8F0900ED8F09008C
:10006000494F0900ED8F0900000000002D880900AC
:10007000458809005D8809007588090000000000B6
:1000800000000000ED8F0900ED8F0900ED8F0900E1
:10009000ED8F0900ED8F0900ED8F0900ED8F09004C
:1000A000ED8F090000000000ED8F0900854F090069
:1000B0008D9E0900ED8F0900DD4F0900ED8F0900CD
:1000C000ED8F0900B94F0900ED8F0900ED8F090090
:1000D000ED8F0900ED8F0900ED8F0900ED8F09000C
:1000E000ED8F0900ED8F0900ED8F090085410900B2
:1000F000ED8F090010B5054C237833B9044B13B1CB
:100100000448AFF300800123237010BDDC140720E6
:100110000000000064630A00084B10B51BB10849D9
:100120000848AFF300800848036803B910BD074BC7
:10013000002BFBD0BDE81040184700BF00000000B6
:10014000E014072064630A0064630A0000000000F2
:1001500080B582B000AF78607B68072B31D801A2F0
:1001600052F823F0C1010800850108008D01080044
:10017000950108009D010800A5010800AD010800D7
:10018000B70108000020114B98471AE001200F4BDF
:10019000984716E000200E4B984712E010200C4BB9
:1001A00098470EE020200A4B98470AE03E210020A5
:1001B000084B984705E03E210120064B984700E098
:1001C00000BF00BF0837BD4680BD00BF0D890900D4
:1001D00079890900198A090080B582B000AF78607A
:1001E0007B68072B26D801A252F823F00D020800E5
:1001F000110208001102080023020800230208006F
:10020000230208002302080023020800012312E051
:100210000B4B98470346002B14BF01230023DBB28E
:1002200009E0084B98470346002B14BF0123002325
:10023000DBB200E0002318460837BD4680BD00BF92
:1002400045890900918A090080B483B000AF7860C5
:100250007B68072B25D801A252F823F07D02080005
:1002600083020800890208008F0208009302080038
:10027000970208009B0208009F0208004FF4FA430F
:1002800010E04FF400430DE04FF400430AE0084B48
:1002900008E0084B06E0084B04E0074B02E0064B81
:1002A00000E0002318460C37BD4680BC704700BFF5
:1002B00000093D0000127A00001BB70080B582B033
:1002C00000AF0346FB7100BFFB791846054B98470A
:1002D000034683F00103DBB2002BF5D100BF0837E2
:1002E000BD4680BDD901080080B586B000AFF8607A
:1002F0007A603B600B46FB727B68002B07D13B6842
:10030000002B04D1FB684FF470021A6019E0FB7AED
:1003100018460E4B984702467B68B2FBF3F37B61AD
:100320007B693A6802FB03F37B613B68013B1A047B
:10033000074B13407A68D2B2134343F47C52FB68F4
:100340001A6000BF1837BD4680BD00BF49020800D3
:100350000000FF0780B582B000AF786039603B686D
:10036000002B08D1094B9847094A7B681B6843F06A
:100370000053936205E0064A7B681B6843F48033B0
:10038000D36100BF0837BD4680BD00BFA98A090000
:1003900000060E4080B582B000AF78607B68002B0D
:1003A00003D1054B9847034602E0044B98470346A8
:1003B00018460837BD4680BDC18A0900D98A0900A0
:1003C00080B582B000AF0346FB71FB79033B042B81
:1003D00008D8FB791846064B9847FB791846054B19
:1003E000984700E000BF00BF0837BD4680BD00BF92
:1003F00051010800BD02080080B582B000AF7860EE
:1004000000BF7868044B98470346002BF9D00023BF
:1004100018460837BD4680BD9503080080B500AF7B
:100420000620044B984702461346DB009B1A5B00EC
:10043000184680BD4902080080B500AF024B9847BE
:1004400003465B08184680BD1D04080090B583B0C4
:1004500000AF104B9847034618460F4B98470620AD
:100460000E4B9847381D0E23012206210C4CA04745
:100470003B1D002118460B4B984700200A4B98471C
:1004800010200A4B98470A4B984700BF0C37BD46CF
:1004900090BD00BF3904080021920900C103080083
:1004A000E902080055030800F90308008D880900D7
:1004B0009D90090080B584B000AFF860B9607A60A3
:1004C0007B681B0203F47062BB6813431946F8682B
:1004D000034B9847002318461037BD4680BD00BF28
:1004E000B500072080B584B000AF786039607B68C4
:1004F0001B6823F47063FB603B681B0203F47062AB
:10050000FB68134319467868024B984700BF1037C1
:10051000BD4680BDB500072080B483B000AF7860D1
:100520007B681B6803F470631B0A18460C37BD46D2
:1005300080BC704780B586B000AFF860B9607A6063
:10054000BB680E2B02D0BB680F2B02D14FF0FF33DC
:1005500020E0FB68114A934214BF01230023DBB261
:100560007B610F4B1B681A460E4B1A600D4B1A68C5
:100570007B681B0223F07F4323F0FF03B968C9B2F5
:100580000B4343F0B443194678699047FB689B6876
:1005900003F0060318461837BD4680BD000A0E401A
:1005A00008001000F814072080B483B000AF786012
:1005B0007B68DB6818460C37BD4680BC704700BFBF
:1005C00080B582B000AF78607868034B984700BF71
:1005D0000837BD4680BD00BFF18A090080B582B0F2
:1005E00000AF78607B68054A934202D11820044B23
:1005F000984700BF0837BD4680BD00BF008000405F
:10060000C105080080B483B000AF78607B68082221
:100610001A607B6820221A607B6804221A6000BF7F
:100620000C37BD4680BC704780B584B000AF7860A1
:1006300039600023FB607B684FF0FF329A627B6871
:100640001B6A78680E4B984778680E4B98473B6852
:1006500059683B681B681A4678680B4B98470346F5
:10066000012B01D10123FB603B685B7A012B02D196
:100670007B6840221A60FB6818461037BD4680BD73
:100680002D080800050608008D06080080B487B014
:1006900000AFF860B9607A6000237B61BB68174ADD
:1006A000934201D9012324E0BB685B007A68B2FB66
:1006B000F3F3043B3B6105E07B6901337B613B69FC
:1006C0005B083B613B69FF2B02D97B69062BF3D9A1
:1006D0000B4A3B6913603B69DAB23B691B029BB270
:1006E0001A437B691B0403F4E0231A43FB681A6175
:1006F000002318461C37BD4680BC7047801A060090
:10070000FC14072080B485B000AF786039603B6886
:10071000002B01D100231DE07B681B78FB603B6848
:10072000012B09DDFB681B02FB607B6801331B7832
:100730001A46FB681343FB603B68022B09DDFB682C
:100740001B02FB607B6802331B781A46FB6813436D
:10075000FB60FB6818461437BD4680BC704700BF7D
:1007600080B586B000AF786039603B68DB687B613C
:100770003B689B683B617B69002B01D101234FE003
:100780007B6800225A603B681B7C1B0403F4FE025A
:100790003B685B681B0203F44073134343F48052CD
:1007A0007B685A607B680022DA603A683B685B6865
:1007B000194610461C4B984702467B68DA607B68F6
:1007C00001221A601FE07B681B6AFB60FB6803F470
:1007D0008073002B01D0052322E07B69012B02D11D
:1007E0007B6802221A60FB6803F00203002B00D131
:1007F00009E03B695A1C3A617A68126BD2B21A70EE
:100800007B69013B7B617B69002BDCD100BF7B688E
:100810001B6A03F00103002BF9D07B681B6A0023DD
:1008200018461837BD4680BD0507080080B483B060
:1008300000AF78607B6880221A607B681B6B00BF0A
:100840000C37BD4680BC704780B487B000AFF860FD
:10085000B9607A603B60BB68B3F5402F0BD3174B90
:100860007B61BB68A3F540231B0A7B82BB689BB2FC
:10087000DBB23B820AE0124B7B61BB68A3F500232D
:100880001B0A7B82BB689BB2DBB23B82FB68002BFE
:1008900002D0FB687A691A607B68002B02D07B6803
:1008A0007A8A1A803B68002B02D03B683A8A1A8009
:1008B00000BF1C37BD4680BC704700BF000C0E4017
:1008C000000A0E4080B487B000AFF8607B600B4632
:1008D0007B8113463B81FB680D4A934206D17B899D
:1008E00003F500631A023B89134405E07B8903F595
:1008F00040631A023B8913447B617B68002B02D062
:100900007B687A691A6000BF1C37BD4680BC70479F
:10091000000A0E4080B487B000AFF860B9607A601A
:100920003B60FB6823F47F5323F03F037B61BB688C
:1009300023F47F5323F03F0303F57F533F333B61A1
:100940007B68002B02D07B687A691A603B68002BB9
:1009500002D03B683A691A6000BF1C37BD4680BCB4
:10096000704700BF80B582B000AF786039603A68E8
:1009700079680648064B98473A6879680548044BF9
:100980009847002318460837BD4680BD000A0E4030
:10099000B5040800000C0E4090B58FB000AFF860B1
:1009A000B9607A603B604A4BBB6207F1140307F100
:1009B000160207F11800F968464CA047BB691846B3
:1009C000454B98477862BB6906211846434B9847C8
:1009D00071E0BB8AC3F580727B68934228BF1346DF
:1009E0003B62B869F98A07F1100300223C4CA0472A
:1009F000BB8A5B429AB23B6A9BB2D31A9BB203F5A5
:100A00008073FB833B691946BB8A1A46B86A354B2B
:100A10009847BB8A1A46BB6A13443A6AB9681846B3
:100A2000304B9847BB8A1A463B6A1344BA6AD018BF
:100A3000BB8A1A463B691A443B6A13441946FB8B2E
:100A40001A46284B98473B69FB6200233B630AE048
:100A5000FB6A1A1DFA621E493A6B51F822201A608D
:100A60003B6B01333B633B6B3F2BF1D93B68002B66
:100A700007D0BB69FA8A032118461B4B9847786355
:100A800006E0BB69FA8A01211846174B984778633C
:100A90007B6B002B01D07B6B16E0BA683B6A13447A
:100AA000BB607A683B6AD31A7B60FB8A01339BB2D6
:100AB000FB820023BB827B68002B8AD1BB69796AE9
:100AC0001846064B9847002318463C37BD4690BD54
:100AD000001507204908080019050800E50408006A
:100AE000C50808007D420A003505080090B58BB0A6
:100AF00000AFF860B9607A603B604023FB8407F187
:100B0000140307F11802B968F8681C4CA0477B6809
:100B1000002B02D0BA697B681A603B68002B02D0B8
:100B20007A693B681A60B96907F1120207F11C0083
:100B30000023134CA047796907F11002002300201D
:100B40000F4CA04710E0FB697A8A082118460D4B2C
:100B5000984738623B6A002B01D03B6A09E07A8AE9
:100B6000FB8C13449BB27B827A8A3B8A9A42EAD3FB
:100B7000002318462C37BD4690BD00BF150908005C
:100B8000490808003505080090B58BB000AFF86043
:100B9000B9607A603B604023FB8407F1140307F1DE
:100BA0001802B968F8681C4CA0477B68002B02D07B
:100BB000BA697B681A603B68002B02D07A693B688F
:100BC0001A60B96907F1120207F11C000023134CE7
:100BD000A047796907F11002002300200F4CA047BD
:100BE00010E0FB697A8A092118460D4B9847386254
:100BF0003B6A002B01D03B6A09E07A8AFB8C1344E4
:100C00009BB27B827A8A3B8A9A42EAD300231846B7
:100C10002C37BD4690BD00BF1509080049080800E3
:100C20003505080080B582B000AF78607B68022B84
:100C300001D9112312E078680A4B98470346012B2B
:100C400001D100230AE07A680B210748074B984737
:100C50000346002B01D1002300E01023184608377B
:100C6000BD4680BD710C0800000A0E403505080025
:100C700080B584B000AF78607B68022B01D9112366
:100C800019E000220D210E480E4B98470346002B19
:100C900001D010230FE00A480B4B9847F86001225F
:100CA0007B6802FA03F31A46FB681340002B01D05D
:100CB000012300E0002318461037BD4680BD00BF69
:100CC000000A0E4035050800A905080080B500AFF0
:100CD0000020024B98470346184680BD250C0800AB
:100CE00080B582B000AF0423FB71104B98470346D8
:100CF000FB71FB79002B01D00D4B98470D4B9847AA
:100D00000346FB71FB79002B01D0094B98470A4B36
:100D100098470346FB71FB79002B01D0044B9847A1
:100D2000002318460837BD4680BD00BF3D0D0800B2
:100D300025870800CDEE08008DE8080080B400AFDC
:100D40003B4B0D221A803A4B0E225A80384B002220
:100D50009A80374B42F21072DA80354B354A9A60EE
:100D6000334B354ADA60324B324A1A61304B324AE1
:100D70005A612F4B314A9A612D4B314ADA612C4B23
:100D80002E4A1A622A4B2C4A5A62294B2D4A9A62E1
:100D9000274B294ADA62264B2B4A9A63244B2B4A6B
:100DA000DA63234B2A4A1A64214B284A5A64204B9F
:100DB000274A9A641E4B254ADA641D4B254A1A6558
:100DC0001B4B42F21072A3F85420194B0022A3F8D7
:100DD0005620174B42F21072A3F85820144B0022F1
:100DE000A3F85A20124B42F21072A3F85C20104B69
:100DF0000022A3F85E200E4B0522A3F860200C4BC6
:100E00001422A3F862200A4B1E22A3F86420084B88
:100E10000522A3F86620064B1E22A3F86820044B87
:100E20000522A3F86A2000231846BD4680BC7047FF
:100E3000082D07200000FA43000096C30000C843B5
:100E4000000048C300007A44000014420000C8417A
:100E50000000A04200003442F0B587B000AF042388
:100E6000FB75894B5B8C1A4640F6E44303FB02F3A7
:100E7000002B01DA03F6FF731B131A46834B10464F
:100E8000984703463B61824B3869984703461BB23B
:100E90001846804B9847804B93F83A30002B15D07A
:100EA00005227E4918207E4B98470346FB75FB7D43
:100EB000002B01D07B4B9847774BB3F93820734B0D
:100EC000104698470246784B1A6016E0764B1A682F
:100ED000764B77491046984703461846754B1A6873
:100EE000754B1146984703461A46744B7449104691
:100EF000984703461A466C4B1A60634B9B8C1A4604
:100F000040F6E44303FB02F3002B01DA03F6FF7320
:100F10001B131A465D4B1046984703463B615C4BDA
:100F20003869984703461BB21846664B98475A4B98
:100F300093F83E30002B15D0052263491820584BFA
:100F400098470346FB75FB7D002B01D0554B984716
:100F5000514BB3F93C204D4B1046984702465B4B32
:100F60001A6016E0594B1A68504B51491046984781
:100F700003461846564B1A684F4B1146984703468E
:100F80001A464E4B4E491046984703461A464F4B59
:100F90001A603D4BDB8C1A4640F6E44303FB02F338
:100FA000002B01DA03F6FF731B131A46374B10466A
:100FB000984703463B61364B3869984703461BB256
:100FC0001846444B9847344B93F84230002B15D0C9
:100FD000052241491820324B98470346FB75FB7D9B
:100FE000002B01D02F4B98472B4BB3F94020274BB8
:100FF000104698470246394B1A6016E0374B1A687C
:101000002A4B2B491046984703461846344B1A681A
:10101000294B1146984703461A46284B2849104643
:10102000984703461A462D4B1A60174B1B8A1A46DF
:1010300040F6E44303FB02F3002B01DA03F6FF73EF
:101040001B131A46114B1046984703463B61104B41
:101050003869984703461BB21846224B98470E4BF7
:1010600093F82E30002B43D005221F4918200C4B3B
:101070009847094BB3F92C20044B10469847024679
:101080001A4B1A604BE000BF282E07206D3D0A0066
:10109000A1410A00714308000C310720D85D0A0005
:1010A000299709002587080018160720153E0A0011
:1010B0000000444260160720053C0A007D3F0A00FC
:1010C0000000484281440800E05D0A001C16072029
:1010D0006416072091450800E85D0A0020160720E5
:1010E000681607206D400800F05D0A00002D0720FB
:1010F000914B1A68914B92491046984703461846FF
:10110000904B1A68904B1146984703461A468F4BEE
:101110008F491046984703461A46874B1A608D4BF5
:101120005B8A1A4640F6E44303FB02F3002B01DA24
:1011300003F6FF731B131A46874B10469847034666
:101140003B61864B3869984703461BB21846844B6F
:101150009847844B93F83230002B0ED005228249F9
:101160001820824B98477F4BB3F930207A4B1046BA
:10117000984702467E4B1A6016E07D4B1A686F4B0B
:101180006F4910469847034618467A4B1A686E4BCB
:101190001146984703461A466C4B6D4910469847CE
:1011A00003461A46724B1A606E4B93F84A30002B76
:1011B0000ED00722704918206C4B9847694BB3F941
:1011C0004820654B1046984702466C4B1A604DE02C
:1011D000604B1B8D1A4649F6085303FB02F3002BA4
:1011E00002DA03F57F43FF331B14FB81FB891846AA
:1011F000634B9847634B1A68544B634910469847B2
:1012000003461A46614B104698470346BB81BA898C
:101210005F4B104698475F4C4FF000025E4BA04773
:1012200003460C46194622465C4B08461146984731
:101230000346BB81514B1A68404B4FF08141104629
:10124000984703461C46BA89434B104698470246C6
:101250003D4B11462046984703461A463B4B5049A2
:101260001046984703461A46444B1A603D4B93F884
:101270004E30002B0ED007224A4918203B4B98478E
:10128000384BB3F94C20344B104698470246464B36
:101290001A603DE02F4B5B8D1A4649F6085303FB5D
:1012A00002F3002B02DA03F57F43FF331B147B812B
:1012B0007B891846324B9847324B1A68234B324988
:1012C0001046984703461A46304B10469847034647
:1012D0003B813B89093B3B81334B1A68174B4FF0ED
:1012E00081411046984703461C463A891A4B1046DE
:1012F00098470246144B11462046984703461A4623
:10130000124B27491046984703461A46264B1A6047
:10131000144B93F85230002B4CD00722234918204D
:10132000124B98470F4BB3F950200B4B1046984780
:1013300002461F4B1A608BE0002D0720153E0A0065
:1013400000004442742D0720053C0A007D3F0A003E
:1013500000004842282E07206D3D0A00A1410A00E6
:10136000ED4108000C310720F05D0A0029970900C3
:10137000141607205C160720F85D0A0024160720C3
:10138000E1E80800302607200000C842ED410A00CD
:10139000C9340A002D320A0000000440193B0A003B
:1013A0000000A040005E0A0028160720085E0A0020
:1013B0002C1607207E4B9B8D1A4649F6085303FBDB
:1013C00002F3002B02DA03F57F43FF331B14FB808B
:1013D000FB881846774B9847774B1A68774B7849C4
:1013E0001046984703461A46764B104698470346E0
:1013F000BB80BA88744B10469847744C4FF000027B
:10140000734BA04703460C4619462246714B0846CB
:10141000114698470346BB806F4B1A686F4B4FF0DD
:1014200081411046984703461C46BA886C4B1046CB
:10143000984702466B4B11462046984703461A468A
:101440005E4B69491046984703461A46624B1A603C
:10145000664B9B7F002B0ED0052265491820654BFB
:101460009847624BB3F91C205D4B104698470246E3
:10147000614B1A6084E04E4B1B8E1A46524B10464D
:1014800098475E4C42A3D3E90023A04703460C468D
:101490001D462646464B1B8E1A464B4B1046984718
:1014A00002460B46554C28463146A04703460C469B
:1014B0001D4626463E4B1B8E1A46434B1046984708
:1014C0004E4C35A3D3E90023A04703460C461A46E9
:1014D00023464B4C28463146A04703460C46184647
:1014E00021463A4C2EA3D3E90023A04703460C46DD
:1014F00019462246434B0846114698470246424B3E
:101500001A60414B1A68414B1046984705460E46F3
:10151000314B1A683D4B104698472C4C4FF0000257
:101520003B4BA04703460C4618462146334C1EA3AE
:10153000D3E90023A04703460C4618462146304C09
:101540004FF00002334BA04703460C461A46234691
:10155000314C28463146A04703460C4618462146E2
:101560002D4C4FF000022D4BA04703460C46194668
:101570002246244B08461146984702461E4B1A60E5
:1015800000BF18461C37BD46F0BD00BFAFF300805A
:101590002D431CEBE2361ABF0AD7A3703D0AD73F92
:1015A00052B81E85EB3143407B14AE47E17A943F3D
:1015B000282E0720E1E80800302607207D3F0A009A
:1015C0000000C842ED410A00C9340A002D320A0069
:1015D00000000440193B0A002C160720153E0A00A3
:1015E0006D3D0A00053C0A000000A0400C310720B8
:1015F000105E0A00299709003416072095350A0065
:1016000031320A00593B0A0030160720ED340A0037
:10161000000039400000F03FE9370A000000244094
:1016200080B582B000AFA24B98470346FB71FB79AF
:10163000002B01D09F4B98479F4B93F89E32002B75
:1016400049D09D4B93F89132012B04D19B4B93F8D9
:101650004530002B09D1984B93F89132002B34D1AF
:10166000964B93F84530002B2FD1934B93F8923241
:10167000012B2FD0904B012283F89222904B1B78A4
:101680008F4A0133DB00134429229A808A4B93F856
:101690009D320133DAB2884B83F89D22894B0122B7
:1016A0001A70894B29221A70854B1B781A46844B75
:1016B00013442E229A70854B98470346FB71FB79A1
:1016C000002B07D07B4B984704E07B4B042283F828
:1016D000922200E000BF784B93F8AE32002B49D045
:1016E000754B93F8A132012B04D1744B93F845301C
:1016F000002B09D1704B93F8A132002B34D16F4BE2
:1017000093F84530002B2FD16B4B93F8A232012B6D
:101710002FD0694B012283F8A222694B1B78684ABB
:101720000133DB00134429229A80634B93F8AD32D6
:101730000133DAB2604B83F8AD22624B01221A709A
:10174000614B2A221A705E4B1B781A465C4B13447D
:101750002E229A705D4B98470346FB71FB79002B54
:1017600007D0544B984704E0534B042283F892224D
:1017700000E000BF504B93F8BE32002B49D04E4BD7
:1017800093F8B132012B04D14C4B93F84630002B27
:1017900009D1494B93F8B132002B34D1474B93F820
:1017A0004630002B2FD1444B93F8B232012B2FD06F
:1017B000414B012283F8B222414B1B78404A01334E
:1017C000DB0013442B229A803B4B93F8BD3201334C
:1017D000DAB2394B83F8BD223A4B01221A703A4BE8
:1017E0002B221A70364B1B781A46354B13442E2287
:1017F0009A70364B98470346FB71FB79002B07D054
:101800002C4B984704E02C4B042283F8B22200E0D2
:1018100000BF294B93F8CE32002B5AD0264B93F8B9
:10182000C132012B04D1254B93F84630002B09D14E
:10183000214B93F8C132002B34D1204B93F8463022
:10184000002B2FD11C4B93F8C232012B40D01A4BE6
:10185000012283F8C2221A4B1B78194A0133DB009C
:1018600013442C229A80144B93F8CD320133DAB210
:10187000114B83F8CD22134B01221A70124B2C22EC
:101880001A700F4B1B781A460D4B13442E229A7078
:101890000E4B98470346FB71FB79002B18D0054B84
:1018A000984715E0044B042283F8C22211E000BFE0
:1018B000590E080025870800E0280720282E072059
:1018C000C42E072011160720042D0720692E0800BA
:1018D00000BF954B93F80E32002B32D0934B1B8BED
:1018E000002B2AD0904B012283F80222904B1B78C8
:1018F0008F4A0133DB00134420229A808A4B93F8ED
:101900000D320133DAB2884B83F80D22894B012264
:101910001A70894B20221A70854B1B781A46844B0B
:1019200013442E229A70854B98470346FB71FB792E
:10193000002B06D0824B984703E07B4B042283F8B0
:101940000222794B93F81E32002B32D0774B5B8BFF
:10195000002B2AD0744B012283F81222744B1B787F
:10196000734A0133DB00134421229A806E4B93F8B3
:101970001D320133DAB26C4B83F81D226D4B01220C
:101980001A706D4B21221A70694B1B781A46684BEE
:1019900013442E229A70694B98470346FB71FB79DA
:1019A000002B06D0664B984703E05F4B042283F878
:1019B00012225D4B93F82E32002B32D05B4BDB8F23
:1019C000002B2AD0584B012283F82222584B1B7837
:1019D000574A0133DB00134422229A80524B93F87A
:1019E0002D320133DAB2504B83F82D22514B0122B4
:1019F0001A70514B22221A704D4B1B781A464C4BD1
:101A000013442E229A704D4B98470346FB71FB7985
:101A1000002B06D04A4B984703E0434B042283F83F
:101A20002222414B93F84E32002B3DD0454B9A6811
:101A3000454B1968454B104698470346002B2AD062
:101A4000394B012283F84222394B1B78384A013343
:101A5000DB00134424229A80334B93F84D32013338
:101A6000DAB2314B83F84D22324B01221A70324BDD
:101A700024221A702E4B1B781A462D4B13442E220B
:101A80009A702E4B98470346FB71FB79002B0BD0C5
:101A90002B4B984708E0244B93F84232012B03D19B
:101AA000214B042283F842221F4B93F83E32002B35
:101AB0005DD00B2226491820264B9847214BDA6827
:101AC000214B1968244B104698470346002B45D0FC
:101AD000154B012283F83222154B1B78144A01332F
:101AE000DB00134423229A800F4B93F83D320133DD
:101AF000DAB20D4B83F83D220E4B01221A700E4BC9
:101B000023221A700A4B1B781A46094B13442E22C3
:101B10009A700A4B98470346FB71FB79002B26D03D
:101B2000074B984723E000BFE0280720282E072016
:101B3000C42E072011160720042D0720692E080047
:101B400025870800082D0720002D072051410A0095
:101B50001C5E0A00299709008D410A00934B93F8F7
:101B60003232012B03D1914B042283F832228F4B66
:101B700093F86E32002B47D007228D4918208D4BE9
:101B80009847FB79002B01D08B4B98478B4B1A69F8
:101B90008B4B19688B4B104698470346002B2AD075
:101BA000824B012283F86222874B1B78864A0133DD
:101BB000DB00134426229A807C4B93F86D3201336C
:101BC000DAB27A4B83F86D22804B01221A70804B77
:101BD00026221A707C4B1B781A467B4B13442E220C
:101BE0009A707C4B98470346FB71FB79002B0BD016
:101BF000714B984708E06D4B93F86232012B03D18B
:101C00006A4B042283F86222684B93F85E32002B01
:101C10003DD06A4B5A696A4B19686F4B104698471A
:101C20000346002B2AD0614B012283F85222664BD7
:101C30001B78654A0133DB00134425229A805B4BF5
:101C400093F85D320133DAB2584B83F85D225F4B73
:101C500001221A705E4B26221A705B4B1B781A46C3
:101C6000594B13442E229A705A4B98470346FB71E6
:101C7000FB79002B0BD0504B984708E04B4B93F867
:101C80005232012B03D1494B042283F85222474B95
:101C90009B7F002B43D0454B5B7C012B03D14F4BEB
:101CA0001B78002B0AD1414B5B7C002B32D14B4B74
:101CB0001B7883F00103DBB2002B2BD03B4B9B7CCA
:101CC000012B2BD0394B01229A743F4B1B783E4A93
:101CD0000133DB00134401229A80344B5B7F0133D4
:101CE000DAB2324B5A77394B01221A70384B012243
:101CF0001A70354B1B781A46334B13442E229A70B8
:101D0000344B98470346FB71FB79002B06D02A4BD6
:101D1000984703E0254B04229A7400E000BF234B50
:101D200093F83E30002B5FD0204B93F83130012BDD
:101D300004D12A4B93F84030002B0CD11B4B93F865
:101D40003130002B4CD1254B93F8403083F0010308
:101D5000DBB2002B44D0154B012283F832201A4B02
:101D60001B78194A0133DB00134403229A800F4B7E
:101D700093F83D300133DAB20C4B83F83D20134B1E
:101D800001221A70124B03221A700F4B1B781A464D
:101D90000D4B13442E229A700E4B98470346FB714D
:101DA000FB79002B20D0044B98471DE0E02807204A
:101DB000285E0A002997090025870800082D0720BA
:101DC0001416072051410A00C42E072011160720BF
:101DD000042D0720692E08008D410A00282E0720B7
:101DE000964B042283F83220944B93F85E30002BFC
:101DF00045D0924B93F85130012B04D1904B93F87E
:101E00004030002B0CD18D4B93F85130002B32D148
:101E10008B4B93F8403083F00103DBB2002B2AD0C8
:101E2000864B012283F85220864B1B78854A01336A
:101E3000DB00134403229A80804B93F85D3001331A
:101E4000DAB27E4B83F85D207F4B01221A707F4B04
:101E500005221A707B4B1B781A467A4B13442E22AC
:101E60009A707B4B98470346FB71FB79002B06D099
:101E7000784B984703E0714B042283F852206F4B54
:101E800093F84E30002B45D06C4B93F84130012B2A
:101E900004D16B4B93F84130002B0CD1674B93F876
:101EA0004130002B32D1664B93F8413083F001036F
:101EB000DBB2002B2AD0614B012283F84220614B18
:101EC0001B78604A0133DB00134404229A805B4B89
:101ED00093F84D300133DAB2584B83F84D205A4B0A
:101EE00001221A70594B04221A70564B1B781A465D
:101EF000544B13442E229A70554B98470346FB715E
:101F0000FB79002B06D0534B984703E04B4B042240
:101F100083F84220494B93F86E30002B45D0474B55
:101F200093F86130012B04D1454B93F84130002BDD
:101F30000CD1424B93F86130002B32D1404B93F8D7
:101F4000413083F00103DBB2002B2AD03B4B01224E
:101F500083F862203B4B1B783A4A0133DB00134481
:101F600006229A80354B93F86D300133DAB2334B49
:101F700083F86D20344B01221A70344B06221A70FC
:101F8000304B1B781A462F4B13442E229A70304B3D
:101F900098470346FB71FB79002B06D02D4B9847E1
:101FA00003E0264B042283F86220244B93F8CE33BF
:101FB000002B60D0224B9B8B012B4FD1264BB3F9CA
:101FC0000030002B4AD11D4B012283F8C2231D4B48
:101FD0001B781C4A0133DB0013443C229A80174BC8
:101FE00093F8CD330133DAB2144B83F8CD23164B7B
:101FF00001221A70154B3C221A70124B1B781A469C
:10200000104B13442D229A70114B98470346FB71D5
:10201000FB79002B01D00F4B98470A4B1B781A46CF
:10202000084B13442F229A70094B98470346FB71C3
:10203000FB79002B1AD0074B984717E0E0280720C0
:10204000282E0720C42E072011160720042D072054
:10205000692E080025870800121607209B4B0422D2
:1020600083F8C223994B002283F8CD23984B9B8B96
:102070001AB2984B1A80964B9B8F002B02D0964B2E
:1020800001221A70924B9B8F002B02D1924B02229D
:102090001A708E4B93F8DE33002B46D08C4B93F89E
:1020A0003A30002B04D0894B93F8D133012B0CD05C
:1020B000874B93F83A3083F00103DBB2002B34D026
:1020C000824B93F8D133002B2FD1804B93F8D2332E
:1020D000012B20D07D4B022283F8E2237B4B01228F
:1020E00083F8D2237D4B1B787C4A0133DB001344F9
:1020F0003D229A807A4B01221A707A4B3D221A7047
:10210000764B1B781A46754B13442E229A70764BE9
:1021100001221A7006E06D4B002283F8DD23704B1C
:1021200000221A70714B00221A70684B93F8EE333C
:10213000002B43D0664B93F83A30002B04D0634B0E
:1021400093F8E133012B0CD0614B93F83A3083F0D4
:102150000103DBB2002B31D05C4B93F8E133002B51
:102160002CD15A4B93F8E233012B1DD0574B93F8E7
:10217000EE33002B1FD0554B022283F8D223534B52
:10218000012283F8E223564B01221A70554B3E225E
:102190001A70524B1B781A46504B13442E229A70D9
:1021A000514B02221A7006E0484B002283F8ED23BF
:1021B0004B4B00221A704D4B01221A70434B93F87F
:1021C0005E31002B42D0414B93F85231012B34D079
:1021D000474B9A69474B1968474B10469847034647
:1021E000002B33D0394B012283F852213B4B1B7813
:1021F0003A4A0133DB00134415229A80334B93F89B
:102200005D310133DAB2314B83F85D21344B012269
:102210001A70344B15221A70304B1B781A462F4B0C
:1022200013442E229A70354B98470346FB71FB7975
:10223000002B0BD0324B984708E0244B93F85231D7
:10224000012B03D1214B042283F852211F4B93F819
:102250006E31002B61D01D4B93F86231012B53D0AE
:10226000234BDA69234B1968264B104698470346DF
:10227000002B52D0154B012283F86221174B1B789B
:10228000164A0133DB00134416229A800F4B93F851
:102290006D310133DAB20D4B83F86D21104B012201
:1022A0001A70104B16221A700C4B1B781A460B4BE7
:1022B00013442E229A70114B98470346FB71FB7909
:1022C000002B2AD00E4B984727E000BFE0280720BC
:1022D000282E0720121607209C260720C42E072030
:1022E00011160720042D0720C8260720000107200B
:1022F000082D07201816072051410A00692E0800F2
:10230000258708008D410A00994B93F86231012B13
:1023100003D1974B042283F86221954B93F87E31C9
:10232000002B42D0924B93F87231012B34D0914B59
:102330001A6A914B1968914B104698470346002B37
:1023400033D08B4B012283F872218D4B1B788C4A42
:102350000133DB00134417229A80854B93F87D31BB
:102360000133DAB2824B83F87D21864B01221A7049
:10237000854B17221A70824B1B781A46804B1344E8
:102380002E229A70814B98470346FB71FB79002BF4
:102390000BD07F4B984708E0754B93F87231012BB7
:1023A00003D1734B042283F87221714B93F88E3161
:1023B000002B42D06E4B93F88231012B34D06D4B01
:1023C0005A6A6D4B1968734B104698470346002BA9
:1023D00033D0674B012283F88221694B1B78684A0E
:1023E0000133DB00134418229A80614B93F88D313E
:1023F0000133DAB25E4B83F88D21624B01221A70F1
:10240000614B18221A705E4B1B781A465C4B1344C2
:102410002E229A705D4B98470346FB71FB79002B87
:102420000BD05B4B984708E0514B93F88231012B5E
:1024300003D14F4B042283F882214D4B93F87E3217
:10244000002B42D04B4B9A6A534B19684B4B1046AA
:1024500098470346002B2FD0454B93F87232012B3F
:102460002AD0434B012283F87222454B1B78444A01
:102470000133DB00134427229A803D4B93F87D32D1
:102480000133DAB23A4B83F87D223E4B01221A70B7
:102490003D4B27221A703A4B1B781A46384B13448F
:1024A0002E229A70394B98470346FB71FB79002B1B
:1024B0000BD0374B984708E02D4B93F87232012B25
:1024C00003D12B4B042283F87222294B93F88E32CE
:1024D000002B70D0274BDA6A2F4B19682D4B104612
:1024E00098470346002B5DD0214B93F88232012B95
:1024F00058D0294B1A68214B4FF0000110469847DD
:102500000346002B09D0244B1A68244B244910465B
:10251000984703461A46204B1A60154B012283F850
:102520008222174B1B78164A0133DB001344282202
:102530009A800F4B93F88D320133DAB20C4B83F84B
:102540008D22104B01221A700F4B28221A700C4B4F
:102550001B781A460A4B13442E229A700B4B98474D
:102560000346FB71FB79002B25D0094B984722E0ED
:10257000E0280720082D07201C16072051410A00DB
:10258000C42E072011160720042D0720692E0800ED
:10259000258708008D410A0020160720053C0A0007
:1025A00000007A44994B93F88232012B03D1974B68
:1025B000042283F88222954B93F8FE30002B45D0FD
:1025C000924BD3F8F420924B1968924B10469847DF
:1025D0000346002B2AD08D4B012283F8F2208E4B2C
:1025E0001B788D4A0133DB0013440F229A80874BFE
:1025F00093F8FD300133DAB2844B83F8FD20874B2A
:1026000001221A70864B0F221A70834B1B781A46D0
:10261000814B13442E229A70824B98470346FB71DC
:10262000FB79002B12D0804B98470FE0774B93F843
:10263000F230012B0AD1754B042283F8F220734B40
:10264000002283F8FD20754B00221A706F4B93F81F
:102650000E31002B4AD06D4BD3F808216C4B196812
:10266000724B104698470346002B2FD0674B93F8C8
:102670000231012B3AD0654B012283F80221664BCF
:102680001B78654A0133DB00134410229A805F4BAC
:1026900093F80D310133DAB25C4B83F80D215F4BB7
:1026A00001221A705E4B10221A705B4B1B781A467F
:1026B000594B13442E229A705A4B98470346FB718C
:1026C000FB79002B12D0584B98470FE04F4B93F8F3
:1026D0000231012B0AD14D4B042283F802214B4BCE
:1026E000002283F80D214D4B00221A70474B93F8BE
:1026F0003E31002B4AD0454BD3F834214C4B19685E
:10270000444B104698470346002B2FD03F4B93F87D
:102710003231012B3AD03D4B012283F832213E4B1E
:102720001B783D4A0133DB00134413229A80374B58
:1027300093F83D310133DAB2344B83F83D21374B06
:1027400001221A70364B13221A70334B1B781A462B
:10275000314B13442E229A70324B98470346FB713B
:10276000FB79002B12D0304B98470FE0274B93F8A2
:102770003231012B0AD1254B042283F83221234B1D
:10278000002283F83D21254B00221A701F4B93F83D
:102790004E31002B5ED01D4BD3F83821244B1968E5
:1027A000224B104698470346002B43D0174B93F813
:1027B0004231012B4ED0154B012283F84221164B9A
:1027C0001B78154A0133DB00134414229A800F4B07
:1027D00093F84D310133DAB20C4B83F84D210F4B96
:1027E00001221A700E4B14221A700B4B1B781A46DA
:1027F000094B13442E229A700A4B98470346FB71EB
:10280000FB79002B26D0084B984723E0E0280720CF
:102810002416072051410A00C42E07201116072054
:10282000042D0720692E0800258708008D410A0025
:102830002C1607209A4B93F84231012B0AD1984B62
:10284000042283F84221964B002283F84D21954BB8
:1028500000221A70924B93F81E31002B4AD0904BF5
:10286000D3F81421904B1968904B104698470346B3
:10287000002B2FD08A4B93F81231012B3AD0884B82
:10288000012283F812218A4B1B78894A0133DB002D
:10289000134411229A80824B93F81D310133DAB22E
:1028A0007F4B83F81D217F4B01221A70814B11222F
:1028B0001A707F4B1B781A467D4B13442E229A7058
:1028C0007D4B98470346FB71FB79002B12D07B4B65
:1028D00098470FE0724B93F81231012B0AD1704BDD
:1028E000042283F812216E4B002283F81D216D4BC8
:1028F00000221A706A4B93F82E31002B4AD0684B95
:10290000D3F82821684B19686D4B10469847034649
:10291000002B2FD0624B93F82231012B3AD0604B21
:10292000012283F82221624B1B78614A0133DB00CC
:10293000134412229A805A4B93F82D310133DAB2A4
:10294000574B83F82D21574B01221A70594B1222F5
:102950001A70574B1B781A46554B13442E229A7007
:10296000554B98470346FB71FB79002B12D0534B14
:1029700098470FE04A4B93F82231012B0AD1484B7C
:10298000042283F82221464B002283F82D21454B57
:1029900000221A70424B93F88E30002B45D0404BEA
:1029A000D3F88420474B1968404B1046984703469C
:1029B000002B2AD03A4B012283F882203C4B1B7813
:1029C0003B4A0133DB00134408229A80344B93F8CE
:1029D0008D300133DAB2324B83F88D20314B012236
:1029E0001A70344B08221A70314B1B781A46304B40
:1029F00013442E229A70304B98470346FB71FB79A3
:102A0000002B12D02D4B98470FE0254B93F88230C6
:102A1000012B0AD1224B042283F88220204B002272
:102A200083F88D201F4B00221A701D4B93F87E30C7
:102A3000002B59D01A4B9A6F224B1968204B104625
:102A400098470346002B3FD0154B012283F8722094
:102A5000174B1B78164A0133DB00134407229A8078
:102A60000F4B93F87D300133DAB20D4B83F87D20A4
:102A70000C4B01221A700F4B07221A700C4B1B785B
:102A80001A460B4B13442E229A700B4B9847034661
:102A9000FB71FB79002B27D0084B984724E000BF3F
:102AA000E0280720111607202816072051410A00A8
:102AB000C42E0720042D0720692E08002587080052
:102AC0008D410A0034160720824B93F87230012B97
:102AD0000AD1804B042283F872207E4B002283F8B7
:102AE0007D207D4B00221A707A4B93F89E30002B8C
:102AF0000AD1784B93F8AE30002B05D1754B93F883
:102B0000BE30002B00F0F780744B00221A7073481F
:102B1000734B98470346FB71FB79002B01D0714B37
:102B200098476E4B1B780A2B49D00B2B00F08A80FC
:102B3000092B40F0E080694B1B78664A1B01134467
:102B4000023301221A70634B042283F8A220614BE6
:102B5000042283F8B220644B1B7818465F4B1B7825
:102B600099B2614A431CDB0013440A469A805B4BCE
:102B70001B7858491A010A440D3212780132D1B239
:102B8000544A1B0113440D330A461A70524B01225A
:102B90001A70524B1A78554B1A70534B1B781A46C1
:102BA000514B13442E229A70514B98470346FB71A8
:102BB000FB79002B00F089804A4B984785E0474B12
:102BC0001B78444A1B011344023301221A70414B03
:102BD000042283F892203F4B042283F8B220424B18
:102BE0001B7818463D4B1B7899B23F4A431CDB00CB
:102BF00013440A469A80394B1B7836491A010A4415
:102C00000D3212780132D1B2324A1B0113440D3316
:102C10000A461A70304B01221A70304B1A78334B27
:102C20001A70314B1B781A462F4B13442E229A7080
:102C30002F4B98470346FB71FB79002B47D0294B5C
:102C4000984744E0254B1B78224A1B01134402336A
:102C500001221A701F4B042283F892201D4B04227C
:102C600083F8A220204B1B7818461C4B1B7899B286
:102C70001D4A431CDB0013440A469A80174B1B78FD
:102C800014491A010A440D3212780132D1B2114AA4
:102C90001B0113440D330A461A700F4B01221A70A0
:102CA0000E4B1A78114B1A700F4B1B781A460E4BAD
:102CB00013442E229A700E4B98470346FB71FB7902
:102CC000002B17D0074B984714E000BF13E000BF5C
:102CD00011E000BFE028072011160720101607207A
:102CE0001132080025870800C42E0720042D072074
:102CF000692E080000BF504B1B78002B00F0978016
:102D00004E4B93F8CE30002B0AD14C4B93F8DE306B
:102D1000002B05D1494B93F8EE30002B00F0878053
:102D2000474B9B8F1A46474B1B689A420CD0464B29
:102D300000221A60454B1B680133444A1360444B20
:102D40001B680133424A13603F4B1B68282B32D962
:102D50003A4B93F8C230012B2DD0384B012283F827
:102D6000C2203C4B1B783B4A0133DB0013440C224E
:102D70009A80324B93F8CD300133DAB22F4B83F87F
:102D8000CD202E4B042283F8C220334B01221A702F
:102D9000324B0C221A702F4B1B781A462D4B1344C2
:102DA0002D229A702E4B98470346FB71FB79002B1E
:102DB00001D02C4B9847254B1B68022B32D91F4B57
:102DC00093F8E230012B2DD01C4B012283F8E22036
:102DD000204B1B781F4A0133DB0013440E229A80DC
:102DE000164B93F8ED300133DAB2144B83F8ED2033
:102DF000124B042283F8E220174B01221A70174B62
:102E00000E221A70134B1B781A46124B13442D22B4
:102E10009A70134B98470346FB71FB79002B01D046
:102E2000104B9847064B9B8F1A46064B1A6000239F
:102E300018460837BD4680BD3F260720E0280720FA
:102E4000282E072000160720041607200816072042
:102E50000C160720C42E072011160720042D07206A
:102E6000692E08002587080080B400AF0A4B1B7844
:102E7000002B0CD0094B1B780A2B08D8074B0122DA
:102E80005A70064B1B780133DAB2044B1A700023D8
:102E90001846BD4680BC704711160720C42E072077
:102EA00080B485B000AFBA607B600346FB730B460D
:102EB000BB73FB7B104A1B0113440133BA7B1A70AE
:102EC000FB7B0D4A1B01134408337A681A60FB7BB5
:102ED000094A1B0113440433BA681A60FB7B064A93
:102EE0001B0113440C333A7E1A7000231846143722
:102EF000BD4680BC704700BFE028072080B584B085
:102F000000AF03460A46FB711346BB710023FB73F7
:102F1000FB79002B59D0FB79412B56D8FB793D2BFF
:102F200005D0FB793E2B02D0FB793C2B14D1FB79E9
:102F30002C4A1B0113440E3301221A70FB79294AD3
:102F40001B011344023302221A70FB79254A1B012C
:102F500013440D3300221A70234B1B78002B36D0FC
:102F6000FB79204A1B011344FA791A70BB79002BB4
:102F700015D0FB791B4A1B0113440E3301221A7032
:102F8000FB79184A1B011344023302221A70FB79A1
:102F9000144A1B0113440D3300221A7017E0FB7909
:102FA000104A1B0113440E3300221A70FB790D4A9C
:102FB0001B011344023304221A70FB79094A1B01D6
:102FC00013440D3300221A7001E00423FB73FB7BD2
:102FD000002B01D0054B9847FB7B18461037BD46A8
:102FE00080BD00BFE0280720EC09072025870800E6
:102FF00080B485B000AF0346FB710023FB73FB79FF
:10300000002B0CD0FB79412B09D8FB79084A1B0116
:103010001344023302221A700023FB7301E00423DD
:10302000FB73FB7B18461437BD4680BC704700BF5E
:10303000E028072080B584B000AF03463960FB71FB
:103040000023FB73FB79002B1CD0FB79412B19D893
:10305000FB79124A1B01134402331B78012B07D062
:10306000FB790E4A1B01134402331B78032B03D157
:103070003B6801221A7002E03B6800221A700023AC
:10308000FB7301E00423FB73FB7B002B01D0044B9B
:103090009847FB7B18461037BD4680BDE0280720C7
:1030A0002587080080B584B000AF03460A46FB714F
:1030B0001346BB710023FB73FB79002B63D0FB79B4
:1030C000412B60D8FB79364A1B0113440E331B7821
:1030D000002B55D0BB79002B39D0FB79304A1B012E
:1030E0001344023301221A702E4B1B78FA7991B2E5
:1030F0002C4A0133DB0013440A469A80FB792849A5
:103100001A010A440D3212780132D1B2244A1B014D
:1031100013440D330A461A70234B01221A70234AB6
:10312000FB791370FB793C2B07D11E4B1B781A4699
:103130001C4B13442D229A7006E01A4B1B781A463A
:10314000184B13442E229A70194B984718E0FB79BC
:10315000134A1B01134402331B78012B10D1FB7956
:103160000F4A1B011344023304221A70FB790C4AE4
:103170001B0113440D3300221A700B4B00221A70EE
:103180000023FB7301E00423FB73FB7B002B01D0C6
:10319000084B9847002318461037BD4680BD00BF36
:1031A000E0280720C42E072011160720042D072031
:1031B000692E08002587080080B483B000AF002383
:1031C000FB710F4B1B8801339AB20D4B1A800D4BCC
:1031D00000221A600C4B1B6801330B4A1360084B2A
:1031E0001B88142B05D9094B00221A60044B0022BE
:1031F0001A80002318460C37BD4680BC704700BFBC
:103200003816072008160720041607200C1607207A
:1032100080B483B000AF78603B4B1B881A461346DE
:10322000DB001344394A528E1344394A82FB03129D
:103230009210DB17D31A9AB2334B1A80354B1B7896
:10324000032B5BD801A252F823F000BF5D320800C7
:10325000933208005D320800BF3208002A4B1B88F9
:10326000322B0AD9284B1B88B3F5FA6F05D27B683D
:103270000A221A70274B01221A70234B1B88B3F5C0
:10328000FA6F36D97B680B221A70224B03221A7010
:103290002FE01D4B1B88B3F5FA6F05D97B680B2215
:1032A0001A701C4B03221A70174B1B88312B22D823
:1032B0007B6809221A70174B02221A701BE0124B0E
:1032C0001B88322B0AD9104B1B88B3F5FA6F05D235
:1032D0007B680A221A700F4B01221A700A4B1B8856
:1032E000312B0AD87B6809221A700A4B02221A7005
:1032F00003E000BF02E000BF00E000BF002318466B
:103300000C37BD4680BC70473A160720282E072090
:10331000676666663C16072080B584B000AF03463A
:10332000FB710023FB73FB79043B0A2B56D801A2E7
:1033300052F823F061330800BF330800DD33080082
:10334000DD330800DD330800DD330800DD3308001D
:103350008F330800DD330800CD330800DD3308006B
:103360000720824B98470346FB7340F24C410220F2
:103370007F4B98474FF4617101207D4B98477D4BFF
:103380001A787D4B1A707B4B02221A7026E0794B1B
:103390001B78002B21D10720744B98470346FB7301
:1033A000754B1B781A46754B9B5C18466F4B9847BC
:1033B0000346FB73704B1A786E4B1A700DE01120A8
:1033C0006A4B98476B4B00221A7007E06C4B002247
:1033D0001A80684B00221A7000E000BF654B1B7812
:1033E000152B00F2B18501A252F823F0493F0800E5
:1033F000493F080045340800FF340800253708001D
:103400005937080075370800A9370800C537080084
:10341000EB37080007380800A1380800BD3808005D
:103420001F390800BD3B08001F3C0800C13E0800D2
:10343000493F0800053F0800493F0800493F080090
:10344000493F0800FB79013B072B4CD801A252F8F9
:1034500023F000BF753408007D340800E73408000D
:10346000E7340800E73408009B340800E73408001C
:10347000C1340800434B01221A703EE0414B1B78D7
:10348000002B33D03B4B1A783B4B1A70394B03223D
:103490001A703C4B00221A7028E0394B00221A8027
:1034A0000520324B98470346FB73FB7B002B20D152
:1034B000304B1A78304B1A702E4B10221A7018E0CD
:1034C0002F4B00221A800620284B98470346FB7397
:1034D000FB7B002B10D1274B1A78274B1A70254BFA
:1034E00012221A7008E000BF00F02FBD00BF00F0EC
:1034F0002CBD00BF00F029BD00BF00F026BDFB7948
:10350000013B072B00F2028101A252F823F000BF19
:103510000D370800313508000D3708000D37080059
:103520000D370800C13608000D370800E7360800DF
:10353000134BB3F900309AB2013292B211B2104A71
:103540001180B42B40F3E5800F4B1B78012B1DD16C
:103550000B4B00221A804FF4FA710220044B98475B
:103560004FF4C8710120024B98477DE09D7B090014
:10357000257A09003D1607203E1607200401072082
:10358000421607203F160720E6270720A34B98473F
:10359000A34B9847A34B00221A804FF47A71022064
:1035A000A14B984740F24C4101209F4B98479F4BBD
:1035B00044221A809D4B1B8818469D4B98479D4B73
:1035C0001B78012B50D14FF416710220964B98476F
:1035D00040F24C410120944B9847974B9847934BAE
:1035E00051221A80914B1B881846914B9847934B58
:1035F00098474FF47A60924B98470120914B984737
:1036000091490520914B98470220914B9847032000
:103610008F4B98478F4B9847002102208E4B98473D
:103620008E4B984764208E4B984742F228310120F8
:10363000894B9847C8208A4B984741F2883101202E
:10364000854B98474FF41670854B984740F6B83134
:103650000120814B98474FF44870814B984740F6C2
:10366000C41101207C4B98474FF47A7102206E4BB5
:1036700098474FF47A7101206B4B98470520794B9E
:1036800098470346FB731320774B98470346FB7319
:103690005120764B98470346FB73FB7B002B38D1B8
:1036A00001211A20724B9847724B1A78724B1A708C
:1036B000704B0C221A706F4B1A786F4B1A7028E0FF
:1036C000584B00221A800520664B98470346FB732F
:1036D000FB7B002B20D1674B1A78674B1A70654B28
:1036E00010221A7018E04F4B00221A8006205D4B02
:1036F00098470346FB73FB7B002B10D15D4B1A7878
:103700005D4B1A705B4B12221A7008E000BF00F08C
:103710001CBC00BF00F019BC00BF00F016BC00BF0D
:1037200000F013BCFB79012B02D0022B04D012E075
:10373000524B01221A700EE0504B1B78002B09D01F
:103740004C4B1A784C4B1A704A4B05221A704B4B53
:1037500000221A7000BFF8E3FB79022B04D0032B80
:1037600004D0012B04D004E000BFEEE300BFECE383
:1037700000BFEAE3FB79012B02D0022B04D012E058
:103780003E4B01221A700EE03C4B1B78002B09D0F7
:10379000384B1A78384B1A70364B07221A70374B51
:1037A00000221A7000BFD0E3FB79022B04D0032B58
:1037B00004D0012B04D004E000BFC6E300BFC4E383
:1037C00000BFC2E3FB79012B02D0022B0BD00BE030
:1037D000284B1A78284B1A70264B09221A70274B4F
:1037E00000221A7000E000BFAFE3FB79022B04D087
:1037F000032B04D0012B04D004E000BFA5E300BFDD
:10380000A3E300BFA1E3FB79012B02D0022B37D049
:1038100045E01A4B01221A7041E000BF2D7E0900DD
:10382000297D090042160720257A09004416072041
:10383000557E09008D280720217B09008579090024
:103840008D7A0900918A080000009642198A0800C2
:10385000AD790900557D0900D93C0900413C0900BA
:103860002D1E09009D7B0900CD79090011A60800D5
:10387000FD2E08003D1607203E1607203F160720A4
:103880009C4B1B78002B09D09B4B1A789B4B1A70D2
:10389000994B0B221A70974B00221A7000BF54E309
:1038A000FB79022B04D0032B04D0012B04D004E0BD
:1038B00000BF4AE300BF48E300BF46E3FB79002BAB
:1038C00001D0022B2AE08E4BB3F900309BB20133BA
:1038D0009BB21AB28A4B1A808A4BB3F90030132B71
:1038E00011DC884BB3F90030022B02D11320864B38
:1038F0009847844BB3F900309BB201339BB21AB2A4
:10390000804B1A8009E07F4B00221A807A4B1A788C
:103910007A4B1A70784B0D221A7000BF15E3FB79B1
:10392000032B00F2458101A252F823F03D39080033
:10393000B13B08005139080083390800704BB3F9D6
:1039400000309BB201339BB21AB26D4B1A8034E146
:103950006B4BB3F90030962B40F32C816B4B98479F
:1039600004206B4B984732206A4B98470420664BE3
:1039700098473220674B984701211A20664B984799
:1039800018E1664B01221A70654B00221A605C4BED
:10399000B3F900309AB2624B1A80614B16229A70CA
:1039A000574BB3F900309AB25E4B1A805E4B1B78CE
:1039B000012B40F0DD805D4B1B68B3F5C87F00F044
:1039C000D680B3F5C87F06D8C82B00F0B580B3F514
:1039D000967F61D0CCE0B3F5FA7F30D0B3F5487F65
:1039E00040F0C680464BB3F90030372B04DC444B23
:1039F000B3F900302C2B1BDC4D4B1B6801334C4AB8
:103A000013604B4B1B68032B18DD404B9847042079
:103A10003F4B984732203F4B984704203A4B9847FA
:103A200032203C4B984701211A203B4B984705E038
:103A30003F4B00221A603F4B984799E098E0304B8B
:103A4000B3F900304D2B04DC2D4BB3F90030422B81
:103A50001BDC374B1B680133354A1360344B1B6842
:103A6000032B18DD294B98470420294B9847322017
:103A7000284B98470420244B98473220254B9847E1
:103A800001211A20244B984705E0294B00221A6097
:103A9000284B98476CE06BE0194BB3F900307D2B55
:103AA00004DC174BB3F90030722B1BDC204B1B6876
:103AB00001331F4A13601E4B1B68032B18DD134B89
:103AC00098470420124B98473220124B9847042005
:103AD0000D4B984732200F4B984701211A200E4B6F
:103AE000984705E0124B00221A60124B98473FE0BE
:103AF0003EE000BF3F1607203D1607203E16072078
:103B00005016072040160720CD790900197C0900BE
:103B1000AD7909002D1E0900A530080034260720C4
:103B20005416072058160720EF200720F020072002
:103B300048160720697C09009A4BB3F90030BE2B68
:103B400012DD994B98470420984B98473220984BA8
:103B500098470420974B98473220954B984701216E
:103B60001A20954B984703E0944B984700E000BF1C
:103B70000620934B98470346FB7313208B4B9847C3
:103B8000042290493720904B984704228F494920BE
:103B90008D4B9847FB7B002B0ED18D4B1A788D4BAC
:103BA0001A708B4B0E221A707E4B00221A8003E093
:103BB00000BFCAE100BFC8E100BFC6E1FB79002B2E
:103BC00001D0022B2AE0774BB3F900309BB20133CE
:103BD0009BB21AB2734B1A807F4BB3F90030132B90
:103BE00011DC7D4BB3F90030022B02D11320714B55
:103BF0009847794BB3F900309BB201339BB21AB2AC
:103C0000754B1A8009E0744B00221A80704B1A78A9
:103C1000704B1A706E4B0F221A7000BF95E1FB7942
:103C2000032B00F2478101A252F823F03D3C08002B
:103C3000B53E0800513C0800833C0800594BB3F9DD
:103C400000309BB201339BB21AB2564B1A8036E158
:103C5000544BB3F90030962B40F32E81524B9847CA
:103C60000420524B98473220514B98470420514B27
:103C7000984732204E4B984701211A204E4B9847C7
:103C80001AE1564B01221A704E4B00221A60454B26
:103C9000B3F900309AB24B4B1A804A4B15229A70F6
:103CA000404BB3F900309AB2484B1A80474B1B681F
:103CB0001B04464A13604A4B1B78012B40F0DF80FF
:103CC000484B1B68B3F5C87F00F0D880B3F5C87FB8
:103CD00007D8C82B00F0B780B3F5967F00F0868038
:103CE000CDE0B3F5FA7F30D0B3F5487F40F0C78020
:103CF0002C4BB3F90030372B04DC2A4BB3F90030DE
:103D00002C2B1BDC384B1B680133374A1360364BB6
:103D10001B68032B18DD244B98470420234B98473E
:103D20003220234B98470420224B98473220204BC7
:103D3000984701211A20204B984705E02A4B002282
:103D40001A601E4B98479AE099E0164BB3F9003081
:103D50004D2B04DC134BB3F90030422B1BDC224B00
:103D60001B680133204A13601F4B1B68032B18DDAF
:103D70000D4B984704200D4B984732200C4B984729
:103D800004200C4B98473220094B984701211A20F8
:103D9000094B984705E0144B00221A60074B9847DF
:103DA0006DE06CE050160720197C0900AD79090020
:103DB0002D1E0900CD790900A5300800697C090095
:103DC0009D7B0900541607202997090058160720E3
:103DD0003D1607203E1607204016072034260720F0
:103DE000EF200720F02007204C160720594BB3F98D
:103DF00000307D2B04DC574BB3F90030722B1BDCF9
:103E0000554B1B680133544A1360534B1B68032BFB
:103E100018DD524B98470420514B98473220514BA4
:103E200098470420504B984732204E4B9847012129
:103E30001A204E4B984705E0474B00221A604C4B26
:103E400098471CE01BE0434BB3F90030BE2B12DD5A
:103E5000424B98470420424B98473220414B9847A9
:103E60000420414B984732203E4B984701211A20AD
:103E70003E4B984703E03E4B984700E000BF0520CB
:103E80003C4B98470346FB731320354B984704225D
:103E900039493720394B9847FB7B002B0ED1384BE3
:103EA0001A78384B1A702B4B00221A80344B0C2294
:103EB0001A7003E000BF48E000BF46E000BF44E0E6
:103EC000FB79042B0BD0072B00D01AE00520294BDF
:103ED00098470346FB732A4B11221A7011E0072002
:103EE000244B98470346FB73254B1A78254B1A70D1
:103EF000234B02221A701320194B98470346FB7379
:103F000000BF22E0FB79042B0BD0092B00D01AE074
:103F10000620184B98470346FB73194B13221A705F
:103F200011E00720134B98470346FB73144B1A7894
:103F3000144B1A7013200A4B98470346FB73104B1F
:103F400002221A7000BF00E000BF0023184610379D
:103F5000BD4680BD501607204C160720197C09006D
:103F6000AD7909002D1E0900CD790900A5300800A2
:103F7000697C09009D7B09005416072029970900D8
:103F80003D1607203E16072080B485B000AF78604C
:103F90000023FB605DE0334AFB6832F823309BB2BC
:103FA0001A467B689A4209D12E4AFB689B0013444B
:103FB0005B889BB21A462C4B1A604DE0294AFB687D
:103FC00032F823309BB21A467B689A423ED2FB6895
:103FD0000133244A32F823309BB21A467B689A4256
:103FE00034D9FB6801331F4A32F823309BB219469B
:103FF0001C4AFB6832F823309BB2CA1AFB680133B3
:1040000018499B000B445B889BB218461549FB6816
:104010009B000B445B889BB2C31A92FBF3F37B813A
:10402000B7F90A300F49FA6831F8222092B21146E6
:104030007A68521A02FB03F20A49FB689B000B44A0
:104040005B889BB21344084A136005E0FB680133A8
:10405000FB60FB68012B9EDD00BF1437BD4680BCB2
:10406000704700BF401F0720782D072090B585B00E
:1040700000AF0346FB800023FB60A1E0544AFB68CD
:104080009B0013445B881BB2B7F906209A420BD100
:104090004F4AFB6832F823301AB24E4B104698470D
:1040A00002464D4B1A6088E0494AFB689B00134466
:1040B0005B881BB2B7F906209A425BDDFB680133CF
:1040C000434A9B0013445B881BB2B7F906209A420F
:1040D00050DAFB6801333E4A32F823301BB21946EE
:1040E0003B4AFB6832F823301BB2CB1A642202FB36
:1040F00003F2FB68013336499B000B445B881BB21B
:1041000018463349FB689B000B445B881BB2C31AFB
:1041100092FBF3F22F4B104698470346BB60B7F96A
:1041200006202B49FB689B000B445B881BB2D21A0C
:10413000284B104698470246284BB96810469847C6
:1041400003461A46264B27491046984703461C4605
:104150001F4AFB6832F823301AB21E4B10469847AC
:104160000246214B11462046984703461A461A4BF1
:104170001A6022E0164B5B881BB2B7F906209A4200
:1041800009DA134B1B881AB2124B104698470246A5
:10419000114B1A6011E00E4BB3F866301BB2B7F941
:1041A00006209A4209DD0A4BB3F864301AB2094B73
:1041B000104698470246084B1A60FB680133FB60C3
:1041C000FB68192B7FF75AAF00BF1437BD4690BD6F
:1041D0001C0107206D3D0A00742D0720153E0A00C2
:1041E0007D3F0A000000C842053C0A0090B585B03A
:1041F00000AF0346FB800023FB60A1E0544AFB684C
:104200009B0013445B881BB2B7F906209A420BD17E
:104210004F4AFB6832F823301AB24E4B104698478B
:1042200002464D4B1A608FE0494AFB689B001344DD
:104230005B881BB2B7F906209A425BDDFB6801334D
:10424000434A9B0013445B881BB2B7F906209A428D
:1042500050DAFB6801333E4A32F823301BB219466C
:104260003B4AFB6832F823301BB2CB1A642202FBB4
:1042700003F2FB68013336499B000B445B881BB299
:1042800018463349FB689B000B445B881BB2C31A7A
:1042900092FBF3F22F4B104698470346BB60B7F9E9
:1042A00006202B49FB689B000B445B881BB2D21A8B
:1042B000284B104698470246284BB9681046984745
:1042C00003461A46264B27491046984703461C4684
:1042D0001F4AFB6832F823301AB21E4B104698472B
:1042E0000246214B11462046984703461A461A4B70
:1042F0001A6029E0164B5B881BB2B7F906209A4278
:1043000009DA134B1B881AB2124B10469847024623
:10431000164B1A6011E00E4BB3F866301BB2B7F9BA
:1043200006209A4209DD0A4BB3F864301AB2094BF1
:104330001046984702460D4B1A60FB680133FB603C
:10434000FB68192B7FF75AAF00BF1437BD4690BDED
:10435000840107206D3D0A005C160720153E0A0007
:104360007D3F0A000000C842053C0A00742D07206A
:1043700080B584B000AF0346FB800023FB606FE094
:104380003B4AFB689B0013445B881BB2B7F90620CD
:104390009A420BD1364AFB6832F823301AB2354BB9
:1043A000104698470246344B1A605CE0304AFB687E
:1043B0009B0013445B881BB2B7F906209A424CDD80
:1043C000FB6801332A4A9B0013445B881BB2B7F990
:1043D00006209A4241DAFB680133254A32F823303D
:1043E0001BB21946224AFB6832F823301BB2CB1AA3
:1043F000642202FB03F2FB6801331D499B000B445E
:104400005B881BB218461A49FB689B000B445B880B
:104410001BB2C31A92FBF3F37B81B7F90A20B7F9F9
:1044200006101348FB689B0003445B881BB2CB1A41
:1044300003FB02F3114A82FB03125211DB17D31A5A
:104440000B49FA6831F8222012B21A44094B10467F
:1044500098470246084B1A6005E0FB680133FB6091
:10446000FB681A2B8CDD00BF1037BD4680BD00BF36
:10447000240207206D3D0A00601607201F85EB51BE
:1044800080B584B000AF0346FB800023FB606FE083
:104490003B4AFB689B0013445B881BB2B7F90620BC
:1044A0009A420BD1364AFB6832F823301AB2354BA8
:1044B000104698470246344B1A605CE0304AFB686D
:1044C0009B0013445B881BB2B7F906209A424CDD6F
:1044D000FB6801332A4A9B0013445B881BB2B7F97F
:1044E00006209A4241DAFB680133254A32F823302C
:1044F0001BB21946224AFB6832F823301BB2CB1A92
:10450000642202FB03F2FB6801331D499B000B444C
:104510005B881BB218461A49FB689B000B445B88FA
:104520001BB2C31A92FBF3F37B81B7F90A20B7F9E8
:1045300006101348FB689B0003445B881BB2CB1A30
:1045400003FB02F3114A82FB03125211DB17D31A49
:104550000B49FA6831F8222012B21A44094B10466E
:1045600098470246084B1A6005E0FB680133FB6080
:10457000FB681A2B8CDD00BF1037BD4680BD00BF25
:10458000900207206D3D0A00641607201F85EB513D
:1045900080B584B000AF0346FB800023FB606FE072
:1045A0003B4AFB689B0013445B881BB2B7F90620AB
:1045B0009A420BD1364AFB6832F823301AB2354B97
:1045C000104698470246344B1A605CE0304AFB685C
:1045D0009B0013445B881BB2B7F906209A424CDD5E
:1045E000FB6801332A4A9B0013445B881BB2B7F96E
:1045F00006209A4241DAFB680133254A32F823301B
:104600001BB21946224AFB6832F823301BB2CB1A80
:10461000642202FB03F2FB6801331D499B000B443B
:104620005B881BB218461A49FB689B000B445B88E9
:104630001BB2C31A92FBF3F37B81B7F90A20B7F9D7
:1046400006101348FB689B0003445B881BB2CB1A1F
:1046500003FB02F3114A82FB03125211DB17D31A38
:104660000F49FA6831F8222012B21A44094B104659
:1046700098470246084B1A6005E0FB680133FB606F
:10468000FB68312B8CDD00BF1037BD4680BD00BFFD
:10469000FC0207206D3D0A00681607201F85EB51BC
:1046A000781E072090B587B000AF78604FF0000308
:1046B0003B617B683B614FF00003FB6000237B6143
:1046C0008FE04C4A7B6932F823309BB21A464A4B42
:1046D000104698470246494B3969104698470346A9
:1046E000002B0CD0434A7B699B0013445B889AB231
:1046F000434B104698470246424B1A606EE03D4AD3
:104700007B6932F823309BB21A463B4B10469847E0
:1047100002463D4B3969104698470346002B5DD051
:104720007B690133334A32F823309BB21A46324B4D
:10473000104698470246354B39691046984703465C
:10474000002B4BD07B6901332A4A9B0013445B88C2
:104750009BB21946274A7B699B0013445B889BB236
:10476000CA1A7B690133234931F823309BB21846BA
:1047700020497B6931F823309BB2C31A92FBF3F2D4
:104780001D4B104698470346FB601A4A7B6932F876
:1047900023309BB21A46184B1046984702461C4BD2
:1047A00011463869984703461A461A4BF96810466D
:1047B000984703461C460F4A7B699B0013445B885D
:1047C0009BB21A460C4B104698470246124B1146B4
:1047D0002046984703461A460A4B1A607B69013304
:1047E0007B617B69312B7FF76CAF00BF1C37BD4607
:1047F00090BD00BF082007206D3D0A003D410A0022
:10480000653D0A007416072051410A008D410A00D7
:10481000013C0A00153E0A00053C0A0090B587B02D
:1048200000AF0346FB80B7F90620514B104698476E
:1048300003463B610023FB8292E0FB8A4D4A32F83B
:1048400023309BB21A464A4B1046984702464A4BC1
:104850003969104698470346002B0AD0FB8A454A1F
:104860009B0013445B889BB2BB60444ABB681360E7
:104870007AE0FB8A3F4A32F823309BB21A463C4B1F
:104880001046984702463E4B396910469847034602
:10489000002B62D0FB8A0133364A32F823309BB2B8
:1048A0001A46334B104698470246364B3969104634
:1048B00098470346002B50D0FB8A01332D4A9B00BA
:1048C00013445B889BB21946FB8A2A4A9B00134417
:1048D0005B889BB2CA1AFB8A0133264931F8233020
:1048E0009BB21846FB8A234931F823309BB2C31A86
:1048F00092FBF3F21E4B104698470346FB60FB8A7F
:104900001C4A32F823309BB21A46194B104698477E
:1049100002461D4B11463869984703461A461B4B01
:10492000F9681046984703461C46FB8A114A9B00CB
:1049300013445B889BB21A460D4B104698470246BB
:10494000134B11462046984703461A46114B104612
:1049500098470246094B1A6006E0FB8A0133FB8246
:10496000FB8A0D2B7FF669AF00BF1C37BD4690BD9B
:104970006D3D0A00EC0107203D410A007816072032
:1049800051410A008D410A00013C0A00153E0A000F
:10499000053C0A00ED410A0080B400AF1E4B4FF405
:1049A000FA725A611C4B4FF4B9729A611A4B8A22FF
:1049B000DA62194B40F277121A66174B40F26D1209
:1049C0001A66154B8B22C3F88C20134B8922C3F82F
:1049D0008C20114B4FF4C872C3F894200E4B002268
:1049E000C3F890200C4B4FF4C8725A670A4B002250
:1049F0001A67094B32221A66074B00225A66064B89
:104A00004FF496525A63044BF0225A65002318461D
:104A1000BD4680BC704700BFA431072080B592B06E
:104A200000AF0346FB71042387F847304D2387F816
:104A3000463007F10C03322200211846BC4B984740
:104A4000FB790D2B00F061830E2B01D000F054BCDC
:104A5000B84B1B7E002B00F04C84B64B1B79013BFE
:104A6000202B00F24E8301A252F823F0F14A0800F5
:104A7000274B0800CB4B0800F14B080003510800FE
:104A800003510800035108000351080003510800B6
:104A900003510800035108000351080003510800A6
:104AA0000351080003510800035108000351080096
:104AB000274C080003510800035108000351080067
:104AC0000351080003510800035108000351080076
:104AD0000351080003510800035108000351080066
:104AE0005D4B080003510800834B0800A94B0800E8
:104AF000162387F8463001233B7307F10C0301337B
:104B0000194601208C4B9847034687F8473007F138
:104B10000C0197F8463002221846884B9847034606
:104B200087F84730F0E2162387F8463002233B73BC
:104B300007F10C030133194602207F4B98470346C7
:104B400087F8473007F10C0197F8463002221846E3
:104B50007A4B9847034687F84730D5E2162387F803
:104B6000463020233B7300237B7307F10C0197F839
:104B7000463002221846714B9847034687F8473063
:104B8000C2E2162387F8463021233B7300237B7350
:104B900007F10C0197F8463002221846674B9847F8
:104BA000034687F84730AFE2162387F846302323C1
:104BB0003B7307F10C0197F84630022218465F4B11
:104BC0009847034687F847309EE2162387F8463019
:104BD00003233B7300237B7307F10C0197F84630E6
:104BE00002221846554B9847034687F847308BE218
:104BF000162387F8463004233B7307F10C03013377
:104C0000194604204C4B9847034687F8473007F174
:104C10000C0197F8463002221846484B9847034645
:104C200087F8473070E2162387F8463012233B732B
:104C3000404B5B79252B20D83E4B5B797B737B7B8C
:104C40001A463F4B53F822303B6497F84030BB7311
:104C500097F84130FB7397F842303B7497F8433034
:104C60007B7407F10C0197F8463006221846334B47
:104C70009847034687F8473045E22E4B5B792D2B4A
:104C800000F241822B4B5B797B732A4B5B79263B8D
:104C9000072B00F2348201A252F823F0BD4C080029
:104CA000BD4D0800FF500800454D08002F4E08007C
:104CB000895008000F5008009F4E0800204B5B6988
:104CC0003B6497F84030BB7397F84130FB7397F81B
:104CD00042303B7497F843307B74194B9B693B64BB
:104CE00097F84030BB7497F84130FB7497F8423026
:104CF0003B7597F843307B75114BDB6A3B6497F843
:104D00004030BB7597F84130FB7597F842303B76E1
:104D100097F843307B7607F10C0197F846300E2266
:104D20001846064B9847034687F84730E8E100BF2E
:104D300069430A00982F0720398209002997090042
:104D4000A4310720CE4BD3F888303B6497F840302D
:104D5000BB7397F84130FB7397F842303B7497F878
:104D600043307B74C64BD3F88C303B6497F84030AB
:104D7000BB7497F84130FB7497F842303B7597F855
:104D800043307B75BE4BD3F8A4303B6497F840307A
:104D9000BB7597F84130FB7597F842303B7697F832
:104DA00043307B7607F10C0197F846300E22184607
:104DB000B44B9847034687F84730A1E1B04B5B6E90
:104DC0003B6497F84030BB7397F84130FB7397F81A
:104DD00042303B7497F843307B74A94B1B6E3B64A5
:104DE00097F84030BB7497F84130FB7497F8423025
:104DF0003B7597F843307B75A14B9B693B6497F8F3
:104E00004030BB7597F84130FB7597F842303B76E0
:104E100097F843307B7607F10C0197F846300E2265
:104E20001846984B9847034687F8473068E1944BFB
:104E30009B6E3B6497F84030BB7397F84130FB732F
:104E400097F842303B7497F843307B748C4BDB6EA1
:104E50003B6497F84030BB7497F84130FB7497F887
:104E600042303B7597F843307B75C8233B6497F815
:104E70004030BB7597F84130FB7597F842303B7670
:104E800097F843307B7607F10C0197F846300E22F5
:104E900018467C4B9847034687F8473030E1784BFB
:104EA000DB6A3B6497F84030BB7397F84130FB7383
:104EB00097F842303B7497F843307B74704B9B6992
:104EC0003B6497F84030BB7497F84130FB7497F817
:104ED00042303B7597F843307B75694B5B693B64A7
:104EE00097F84030BB7597F84130FB7597F8423022
:104EF0003B7697F843307B76614B5B6B3B6497F86E
:104F00004030BB7697F84130FB7697F842303B77DC
:104F100097F843307B775A4B1B6B3B6497F84030D4
:104F2000BB7797F84130FB7797F8423087F820300D
:104F300097F8433087F82130514B1B6D3B6497F84D
:104F4000403087F8223097F8413087F8233097F8BF
:104F5000423087F8243097F8433087F82530484BA3
:104F6000DB6D3B6497F8403087F8263097F8413086
:104F700087F8273097F8423087F8283097F8433081
:104F800087F829303E4B5B6D3B6497F8403087F8DB
:104F90002A3097F8413087F82B3097F8423087F85D
:104FA0002C3097F8433087F82D30354BDB693B6464
:104FB00097F8403087F82E3097F8413087F82F3037
:104FC00097F8423087F8303097F8433087F831301F
:104FD0002B4B9B6B3B6497F8403087F8323097F847
:104FE000413087F8333097F8423087F8343097F8FB
:104FF000433087F8353007F10C0197F846302A2204
:105000001846204B9847034687F8473078E01C4BFA
:105010001B6F3B6497F84030BB7397F84130FB73CC
:1050200097F842303B7497F843307B74144B5B6FB6
:105030003B6497F84030BB7497F84130FB7497F8A5
:1050400042303B7597F843307B754FF4C8733B642F
:1050500097F84030BB7597F84130FB7597F84230B0
:105060003B7697F843307B7607F10C0197F8463092
:105070000E221846034B9847034687F847303FE017
:10508000A4310720299709009E4BD3F890303B6448
:1050900097F84030BB7397F84130FB7397F8423074
:1050A0003B7497F843307B74964BD3F894303B6451
:1050B00097F84030BB7497F84130FB7497F8423052
:1050C0003B7597F843307B754FF4FA733B6497F860
:1050D0004030BB7597F84130FB7597F842303B760E
:1050E00097F843307B7607F10C0197F846300E2293
:1050F0001846854B9847034687F8473000E000BFC5
:1051000001E000BFF5E000BFF3E0804B1B7E002B09
:1051100000F0F1807D4B1B79122B00D0E8E07B4B37
:105120005B79252B18D8794B5B797B73774B9B790F
:1051300087F84030754BDB7987F84130734B1B7A29
:1051400087F84230714B5B7A87F843307B7B194696
:105150003B6C6C4A42F821306C4B5B79053B202B51
:1051600000F2C48001A252F823F000BFF151080000
:10517000F9510800ED520800ED520800ED52080008
:10518000ED520800015208000952080019520800A7
:10519000ED520800ED520800ED520800ED520800F3
:1051A000ED520800ED520800ED52080021520800AF
:1051B000ED520800ED520800295208004152080043
:1051C00059520800695208007952080089520800B3
:1051D000ED520800ED520800ED520800ED520800B3
:1051E000A1520800B3520800C5520800D552080069
:1051F0003B6C444A53617AE03B6C424A936176E0EF
:105200003B6C404AD36272E03B6C414AA2FB0323F1
:10521000DB083C4A13636AE03B6C3A4A536366E03E
:105220003B6C384A536562E03B6C394AA2FB03236E
:10523000DA08384B104698470246374B9A6456E0D6
:105240003B6C334AA2FB0323DA08324B10469847E3
:105250000246314BDA644AE03A6C2E4B10469847CE
:1052600002462D4B5A6342E03A6C2A4B104698474F
:105270000246294B1A633AE03A6C264B104698478F
:105280000246254B5A6132E03B6C244AA2FB0323C1
:105290005A09204B1046984702461F4B1A6126E0D8
:1052A0003B6C1B4AA2FB0323DB081AB21A4B1A8081
:1052B0001DE03B6C164AA2FB0323DB081AB2164B17
:1052C0005A8014E03A6C134B104698470246124B32
:1052D000DA600CE03B6C114AA2FB03235A090D4B28
:1052E0001046984702460C4B9A6000E000BF00BF92
:1052F00001E000BF00E000BF002318464837BD466C
:1053000080BD00BFA431072029970900982F0720EE
:10531000CDCCCCCC653D0A00082D07201F85EB5174
:1053200080B400AF2A4B00221A602A4B00221A6078
:10533000294B00221A60294B00221A60284B0022B8
:105340001A60284B00221A70274B00221A70274B34
:1053500000221A80264B00221A80264B00221A8037
:10536000254B00221A80254B00221A80244B002254
:105370001A70244B01221A70234B00221A60234B0F
:105380004FF000021A60224B4FF000021A60214BCE
:105390004FF000021A60204B4FF000021A601F4BC2
:1053A0004FF000021A601E4B4FF000021A601D4BB6
:1053B0004FF000021A601C4B4FF000021A601B4BAA
:1053C0004FF000021A6000231846BD4680BC7047AB
:1053D000D4200720D8200720DC200720E020072049
:1053E000E4200720E8200720E9200720802D07205F
:1053F000EA200720EC2007207C2D0720822D0720A3
:10540000EE200720EF200720F0200720F4200720BF
:10541000F8200720FC200720002107200421072076
:10542000082107200C210720102107201421072024
:1054300080B592B000AF0346FB71002387F83E3081
:10544000002387F84730002387F84630002387F889
:105450003D30002387F83C300023A7F8443007F1A3
:10546000340300221A605A604D2387F8433000232A
:1054700087F842300023A7F8403007F13E02FB795D
:1054800011461846C44B9847034687F83F3097F8B3
:105490003E30113B112B00F2868001A252F823F01E
:1054A000A7550800A7550800E9540800A7550800AB
:1054B000A7550800A7550800A7550800A7550800DC
:1054C000A7550800A7550800A7550800A7550800CC
:1054D0006B5508005755080061550800F75408003F
:1054E0003F5508004D5508000220AC4B9847034635
:1054F00087F83F305CE0AA4B1B7E002B55D0A84BB1
:105500001B7987F83030A64B5B7987F83130A44B94
:105510009B7987F83230A24BDB7987F833303B8EAA
:105520001A46A04BDA619F4BDB6918469E4B9847A1
:105530009E4B1B68194606209D4B984735E09B4BB8
:105540001B6819460A209A4B984731E00021092030
:10555000974B98472CE000210220964B984727E074
:1055600000210420934B984722E08D4B1B7E002B9B
:105570001DD08B4B1B7987F82C30894B5B7987F8D2
:105580002D30874B9B7987F82E30854BDB7987F858
:105590002F30BB8D19460120864B9847BB8D1A468C
:1055A000804BDA6503E000BF02E000BF00E000BF0F
:1055B00097F83E30132B15D10C207F4B98470346AC
:1055C00087F83F300E207C4B9847034687F83F30E2
:1055D0000D20794B9847034687F83F30774B1A7870
:1055E000774B1A70754B1B780A2B00F24D8601A27F
:1055F00052F823F0215608008962080099580800E3
:10560000C558080095590800715908007F5F0800C7
:10561000355E0800135E0800515E08006F5E0800EA
:1056200097F83E30023B142B00F22D8101A252F874
:1056300023F000BF89560800D75608008758080095
:1056400075580800875808008758080087580800D0
:1056500087580800875808008758080087580800AE
:10566000875808008758080087580800875808009E
:10567000875808008758080087580800875808008E
:10568000875808007B580800454B1B7E002B00F014
:10569000FD80434B1B79042B00D01BE0162387F8B9
:1056A0004330042387F8343007F1340301331946BB
:1056B0000420444B9847034687F83F3007F13401F4
:1056C00097F84330022218463F4B9847034687F825
:1056D0003F3000BFDAE0324B1B7E002B00F0D98058
:1056E0002F4B5B7987F828302D4B9B7987F8293031
:1056F0002B4BDB7987F82A30294B1B7A87F82B3024
:10570000274B1B79053B202B00F2B28001A252F8F7
:1057100023F000BF71580800715808007158080044
:105720007158080071580800715808007158080035
:105730007158080071580800715808007158080025
:105740007158080071580800715808007158080015
:105750007158080071580800715808007158080005
:10576000CD570800E5570800FD5708000D58080000
:105770001D5808002D58080071580800715808007D
:1057800071580800715808003D5808004758080033
:105790005158080061580800B16208001933080028
:1057A000982F0720A4310720893F0800782D072073
:1057B000A9250900B51E0900F12F0800D0200720F7
:1057C0009E3107203982090029970900BB6AAB4A3C
:1057D000A2FB0323DA08AA4B104698470246A94BBE
:1057E0009A6446E0BB6AA54AA2FB0323DA08A44BED
:1057F000104698470246A34BDA643AE0BA6AA04BD7
:105800001046984702469F4B5A6332E0BA6A9C4B57
:105810001046984702469B4B1A632AE0BA6A984B97
:10582000104698470246974B5A6122E0BA6A944B59
:10583000104698470246934B1A611AE0BB6A1AB2A7
:10584000904B1A8015E0BB6A1AB28E4B5A8010E05A
:10585000BA6A8B4B1046984702468A4BDA6008E0DA
:10586000BA6A874B104698470246864B9A6000E01A
:1058700000BF0EE0844B98470CE0844B98470346EA
:1058800087F83F3006E000BF00F001BD00BF00F028
:10589000FEBC00BF00F0FBBC97F83E30122B00D0DE
:1058A0000EE07B487B4B98470023FB8407F12603DF
:1058B00019460720784B9847784B03221A7000BF8F
:1058C00000F0E5BC97F83E30122B00D04EE00023EC
:1058D000BB8407F1240319460A206F4B9847BB8C01
:1058E000012B42D108226E4918206E4B98474FF485
:1058F0007A7106206C4B984764206C4B98470021C6
:105900000A20694B98476420684B9847684BDB69CD
:105910003B623B6A1846674B984707F12003022217
:10592000194619205F4B98470222634919205D4BA5
:10593000984764205D4B98475F4B1B6819460620CB
:10594000594B98476420594B984700210A20564BE1
:1059500098475A4B984700210220594B984764209A
:10596000524B98474D4B04221A7000BF00F08FBC79
:1059700097F83E30132B00D00AE0524B984740F680
:10598000C41101204E4B9847444B04221A7000BFAB
:1059900000F07DBC97F83E30023B1D2B00F2768470
:1059A00001A252F823F000BF2D5A0800D55A080072
:1059B0008D6208008D6208004B5D0800C55D08001F
:1059C000D15D0800D75D08008D6208008D62080077
:1059D0008D6208008D6208008D6208008D620800EB
:1059E0008D620800035E0800035E0800635C080027
:1059F0008D6208008D620800DD5D0800E95D080029
:105A00008D6208008D6208008D620800035E080048
:105A1000035E08008D6208008D620800215A0800AC
:105A2000294B98471D4B07221A70F1E1274B1B7E2B
:105A3000002B00F0E881254B1B79042B00D01BE0E4
:105A4000162387F84330042387F8343007F13403F2
:105A50000133194604201E4B9847034687F83F3010
:105A600007F1340197F84330022218460D4B98474E
:105A7000034687F83F3000BFC5E100BFCDCCCCCC9A
:105A8000653D0A00082D0720F1770800B56D080074
:105A9000E920072059890800B1D60800D020072046
:105AA000305E0A0029970900A92509002D1E09006A
:105AB000A4310720893F0800782D0720817B090049
:105AC000D93C0900FD6D0800616D0800982F072082
:105AD00039820900A24B1B7E002B00F09681A04B5F
